{
  "_format": "hh-sol-artifact-1",
  "contractName": "BridgeUpgrade",
  "sourceName": "contracts/BridgeUpgrade.sol",
  "abi": [
    {
      "inputs": [
        {
          "internalType": "address",
          "name": "target",
          "type": "address"
        }
      ],
      "name": "AddressEmptyCode",
      "type": "error"
    },
    {
      "inputs": [],
      "name": "AmountTooLow",
      "type": "error"
    },
    {
      "inputs": [],
      "name": "BurnAmountZero",
      "type": "error"
    },
    {
      "inputs": [],
      "name": "ECDSAInvalidSignature",
      "type": "error"
    },
    {
      "inputs": [
        {
          "internalType": "uint256",
          "name": "length",
          "type": "uint256"
        }
      ],
      "name": "ECDSAInvalidSignatureLength",
      "type": "error"
    },
    {
      "inputs": [
        {
          "internalType": "bytes32",
          "name": "s",
          "type": "bytes32"
        }
      ],
      "name": "ECDSAInvalidSignatureS",
      "type": "error"
    },
    {
      "inputs": [
        {
          "internalType": "address",
          "name": "implementation",
          "type": "address"
        }
      ],
      "name": "ERC1967InvalidImplementation",
      "type": "error"
    },
    {
      "inputs": [],
      "name": "ERC1967NonPayable",
      "type": "error"
    },
    {
      "inputs": [],
      "name": "EthTransferFailed",
      "type": "error"
    },
    {
      "inputs": [],
      "name": "FailedCall",
      "type": "error"
    },
    {
      "inputs": [],
      "name": "FeeTransferFailed",
      "type": "error"
    },
    {
      "inputs": [],
      "name": "InsufficientAllowance",
      "type": "error"
    },
    {
      "inputs": [],
      "name": "InsufficientBalance",
      "type": "error"
    },
    {
      "inputs": [
        {
          "internalType": "address",
          "name": "token",
          "type": "address"
        }
      ],
      "name": "InsufficientPermits",
      "type": "error"
    },
    {
      "inputs": [],
      "name": "InvalidFeeCollector",
      "type": "error"
    },
    {
      "inputs": [],
      "name": "InvalidFeeRate",
      "type": "error"
    },
    {
      "inputs": [],
      "name": "InvalidInitialization",
      "type": "error"
    },
    {
      "inputs": [],
      "name": "InvalidOwnershipTransfer",
      "type": "error"
    },
    {
      "inputs": [],
      "name": "InvalidPermits",
      "type": "error"
    },
    {
      "inputs": [],
      "name": "InvalidPrerotatedKeyHash",
      "type": "error"
    },
    {
      "inputs": [],
      "name": "InvalidPublicKey",
      "type": "error"
    },
    {
      "inputs": [],
      "name": "InvalidRecipientAmount",
      "type": "error"
    },
    {
      "inputs": [],
      "name": "InvalidRecipientForNonMatchingSigner",
      "type": "error"
    },
    {
      "inputs": [],
      "name": "InvalidSignature",
      "type": "error"
    },
    {
      "inputs": [],
      "name": "MissingPermit",
      "type": "error"
    },
    {
      "inputs": [],
      "name": "NoTokenPairs",
      "type": "error"
    },
    {
      "inputs": [],
      "name": "NotInitializing",
      "type": "error"
    },
    {
      "inputs": [
        {
          "internalType": "address",
          "name": "contractAddress",
          "type": "address"
        }
      ],
      "name": "NotOwnerOfTarget",
      "type": "error"
    },
    {
      "inputs": [
        {
          "internalType": "address",
          "name": "owner",
          "type": "address"
        }
      ],
      "name": "OwnableInvalidOwner",
      "type": "error"
    },
    {
      "inputs": [
        {
          "internalType": "address",
          "name": "account",
          "type": "address"
        }
      ],
      "name": "OwnableUnauthorizedAccount",
      "type": "error"
    },
    {
      "inputs": [],
      "name": "PermitDeadlineExpired",
      "type": "error"
    },
    {
      "inputs": [],
      "name": "ReentrancyGuardReentrantCall",
      "type": "error"
    },
    {
      "inputs": [
        {
          "internalType": "address",
          "name": "token",
          "type": "address"
        }
      ],
      "name": "SafeERC20FailedOperation",
      "type": "error"
    },
    {
      "inputs": [],
      "name": "TokenPairExists",
      "type": "error"
    },
    {
      "inputs": [],
      "name": "TokenPairNotSupported",
      "type": "error"
    },
    {
      "inputs": [],
      "name": "TransferFailed",
      "type": "error"
    },
    {
      "inputs": [],
      "name": "UUPSUnauthorizedCallContext",
      "type": "error"
    },
    {
      "inputs": [
        {
          "internalType": "bytes32",
          "name": "slot",
          "type": "bytes32"
        }
      ],
      "name": "UUPSUnsupportedProxiableUUID",
      "type": "error"
    },
    {
      "inputs": [
        {
          "internalType": "address",
          "name": "contractAddress",
          "type": "address"
        },
        {
          "internalType": "string",
          "name": "reason",
          "type": "string"
        }
      ],
      "name": "UpgradeFailed",
      "type": "error"
    },
    {
      "inputs": [],
      "name": "ZeroAddress",
      "type": "error"
    },
    {
      "anonymous": false,
      "inputs": [
        {
          "indexed": false,
          "internalType": "uint64",
          "name": "version",
          "type": "uint64"
        }
      ],
      "name": "Initialized",
      "type": "event"
    },
    {
      "anonymous": false,
      "inputs": [
        {
          "indexed": true,
          "internalType": "address",
          "name": "previousOwner",
          "type": "address"
        },
        {
          "indexed": true,
          "internalType": "address",
          "name": "newOwner",
          "type": "address"
        }
      ],
      "name": "OwnershipTransferred",
      "type": "event"
    },
    {
      "anonymous": false,
      "inputs": [
        {
          "indexed": true,
          "internalType": "address",
          "name": "implementation",
          "type": "address"
        }
      ],
      "name": "Upgraded",
      "type": "event"
    },
    {
      "inputs": [],
      "name": "UPGRADE_INTERFACE_VERSION",
      "outputs": [
        {
          "internalType": "string",
          "name": "",
          "type": "string"
        }
      ],
      "stateMutability": "view",
      "type": "function"
    },
    {
      "inputs": [
        {
          "internalType": "address",
          "name": "to",
          "type": "address"
        }
      ],
      "name": "emergencyWithdrawBNB",
      "outputs": [],
      "stateMutability": "nonpayable",
      "type": "function"
    },
    {
      "inputs": [],
      "name": "feeCollector",
      "outputs": [
        {
          "internalType": "address",
          "name": "",
          "type": "address"
        }
      ],
      "stateMutability": "view",
      "type": "function"
    },
    {
      "inputs": [],
      "name": "feeSigner",
      "outputs": [
        {
          "internalType": "address",
          "name": "",
          "type": "address"
        }
      ],
      "stateMutability": "view",
      "type": "function"
    },
    {
      "inputs": [
        {
          "internalType": "bytes",
          "name": "publicKey",
          "type": "bytes"
        }
      ],
      "name": "getAddressFromPublicKey",
      "outputs": [
        {
          "internalType": "address",
          "name": "",
          "type": "address"
        }
      ],
      "stateMutability": "pure",
      "type": "function"
    },
    {
      "inputs": [],
      "name": "getOwner",
      "outputs": [
        {
          "internalType": "address",
          "name": "",
          "type": "address"
        }
      ],
      "stateMutability": "view",
      "type": "function"
    },
    {
      "inputs": [],
      "name": "getSupportedTokens",
      "outputs": [
        {
          "internalType": "address[]",
          "name": "",
          "type": "address[]"
        }
      ],
      "stateMutability": "view",
      "type": "function"
    },
    {
      "inputs": [],
      "name": "getTestString",
      "outputs": [
        {
          "internalType": "string",
          "name": "",
          "type": "string"
        }
      ],
      "stateMutability": "pure",
      "type": "function"
    },
    {
      "inputs": [
        {
          "internalType": "address",
          "name": "_keyLogRegistry",
          "type": "address"
        },
        {
          "internalType": "address",
          "name": "_wrappedTokenBeacon",
          "type": "address"
        }
      ],
      "name": "initialize",
      "outputs": [],
      "stateMutability": "nonpayable",
      "type": "function"
    },
    {
      "inputs": [],
      "name": "keyLogRegistry",
      "outputs": [
        {
          "internalType": "contract KeyLogRegistry",
          "name": "",
          "type": "address"
        }
      ],
      "stateMutability": "view",
      "type": "function"
    },
    {
      "inputs": [
        {
          "internalType": "address",
          "name": "",
          "type": "address"
        }
      ],
      "name": "nonces",
      "outputs": [
        {
          "internalType": "uint256",
          "name": "",
          "type": "uint256"
        }
      ],
      "stateMutability": "view",
      "type": "function"
    },
    {
      "inputs": [
        {
          "internalType": "address",
          "name": "originalToken",
          "type": "address"
        }
      ],
      "name": "originalToWrapped",
      "outputs": [
        {
          "internalType": "address",
          "name": "",
          "type": "address"
        }
      ],
      "stateMutability": "view",
      "type": "function"
    },
    {
      "inputs": [],
      "name": "owner",
      "outputs": [
        {
          "internalType": "address",
          "name": "",
          "type": "address"
        }
      ],
      "stateMutability": "view",
      "type": "function"
    },
    {
      "inputs": [],
      "name": "proxiableUUID",
      "outputs": [
        {
          "internalType": "bytes32",
          "name": "",
          "type": "bytes32"
        }
      ],
      "stateMutability": "view",
      "type": "function"
    },
    {
      "inputs": [
        {
          "internalType": "address",
          "name": "token",
          "type": "address"
        },
        {
          "components": [
            {
              "internalType": "address",
              "name": "token",
              "type": "address"
            },
            {
              "internalType": "uint256",
              "name": "fee",
              "type": "uint256"
            },
            {
              "internalType": "uint256",
              "name": "expires",
              "type": "uint256"
            },
            {
              "internalType": "bytes",
              "name": "signature",
              "type": "bytes"
            }
          ],
          "internalType": "struct BridgeUpgrade.FeeInfo",
          "name": "fee",
          "type": "tuple"
        },
        {
          "components": [
            {
              "internalType": "address",
              "name": "originalToken",
              "type": "address"
            },
            {
              "internalType": "string",
              "name": "tokenName",
              "type": "string"
            },
            {
              "internalType": "string",
              "name": "tokenSymbol",
              "type": "string"
            },
            {
              "internalType": "address",
              "name": "wrappedToken",
              "type": "address"
            }
          ],
          "internalType": "struct BridgeUpgrade.TokenPair[]",
          "name": "newTokenPairs",
          "type": "tuple[]"
        },
        {
          "components": [
            {
              "internalType": "address",
              "name": "token",
              "type": "address"
            },
            {
              "internalType": "uint256",
              "name": "amount",
              "type": "uint256"
            },
            {
              "internalType": "uint256",
              "name": "deadline",
              "type": "uint256"
            },
            {
              "internalType": "uint8",
              "name": "v",
              "type": "uint8"
            },
            {
              "internalType": "bytes32",
              "name": "r",
              "type": "bytes32"
            },
            {
              "internalType": "bytes32",
              "name": "s",
              "type": "bytes32"
            },
            {
              "components": [
                {
                  "internalType": "address",
                  "name": "recipientAddress",
                  "type": "address"
                },
                {
                  "internalType": "uint256",
                  "name": "amount",
                  "type": "uint256"
                },
                {
                  "internalType": "bool",
                  "name": "wrap",
                  "type": "bool"
                },
                {
                  "internalType": "bool",
                  "name": "unwrap",
                  "type": "bool"
                },
                {
                  "internalType": "bool",
                  "name": "mint",
                  "type": "bool"
                },
                {
                  "internalType": "bool",
                  "name": "burn",
                  "type": "bool"
                }
              ],
              "internalType": "struct BridgeUpgrade.Recipient[]",
              "name": "recipients",
              "type": "tuple[]"
            }
          ],
          "internalType": "struct BridgeUpgrade.PermitData[]",
          "name": "permits",
          "type": "tuple[]"
        },
        {
          "components": [
            {
              "internalType": "uint256",
              "name": "amount",
              "type": "uint256"
            },
            {
              "internalType": "bytes",
              "name": "publicKey",
              "type": "bytes"
            },
            {
              "internalType": "address",
              "name": "prerotatedKeyHash",
              "type": "address"
            },
            {
              "internalType": "address",
              "name": "twicePrerotatedKeyHash",
              "type": "address"
            },
            {
              "internalType": "address",
              "name": "prevPublicKeyHash",
              "type": "address"
            },
            {
              "internalType": "address",
              "name": "outputAddress",
              "type": "address"
            }
          ],
          "internalType": "struct BridgeUpgrade.Params",
          "name": "unconfirmed",
          "type": "tuple"
        },
        {
          "internalType": "bytes",
          "name": "unconfirmedSignature",
          "type": "bytes"
        },
        {
          "components": [
            {
              "internalType": "uint256",
              "name": "amount",
              "type": "uint256"
            },
            {
              "internalType": "bytes",
              "name": "publicKey",
              "type": "bytes"
            },
            {
              "internalType": "address",
              "name": "prerotatedKeyHash",
              "type": "address"
            },
            {
              "internalType": "address",
              "name": "twicePrerotatedKeyHash",
              "type": "address"
            },
            {
              "internalType": "address",
              "name": "prevPublicKeyHash",
              "type": "address"
            },
            {
              "internalType": "address",
              "name": "outputAddress",
              "type": "address"
            }
          ],
          "internalType": "struct BridgeUpgrade.Params",
          "name": "confirming",
          "type": "tuple"
        },
        {
          "internalType": "bytes",
          "name": "confirmingSignature",
          "type": "bytes"
        }
      ],
      "name": "registerKeyPairWithTransfer",
      "outputs": [],
      "stateMutability": "payable",
      "type": "function"
    },
    {
      "inputs": [],
      "name": "relayer",
      "outputs": [
        {
          "internalType": "address",
          "name": "",
          "type": "address"
        }
      ],
      "stateMutability": "view",
      "type": "function"
    },
    {
      "inputs": [],
      "name": "renounceOwnership",
      "outputs": [],
      "stateMutability": "nonpayable",
      "type": "function"
    },
    {
      "inputs": [
        {
          "internalType": "address",
          "name": "_feeCollector",
          "type": "address"
        }
      ],
      "name": "setFeeCollector",
      "outputs": [],
      "stateMutability": "nonpayable",
      "type": "function"
    },
    {
      "inputs": [
        {
          "internalType": "address",
          "name": "_signer",
          "type": "address"
        }
      ],
      "name": "setFeeSigner",
      "outputs": [],
      "stateMutability": "nonpayable",
      "type": "function"
    },
    {
      "inputs": [
        {
          "internalType": "address",
          "name": "_wrappedTokenBeacon",
          "type": "address"
        }
      ],
      "name": "setWrappedTokenBeacon",
      "outputs": [],
      "stateMutability": "nonpayable",
      "type": "function"
    },
    {
      "inputs": [
        {
          "internalType": "uint256",
          "name": "",
          "type": "uint256"
        }
      ],
      "name": "supportedOriginalTokens",
      "outputs": [
        {
          "internalType": "address",
          "name": "",
          "type": "address"
        }
      ],
      "stateMutability": "view",
      "type": "function"
    },
    {
      "inputs": [
        {
          "internalType": "address",
          "name": "",
          "type": "address"
        }
      ],
      "name": "tokenPairs",
      "outputs": [
        {
          "internalType": "address",
          "name": "originalToken",
          "type": "address"
        },
        {
          "internalType": "address",
          "name": "wrappedToken",
          "type": "address"
        }
      ],
      "stateMutability": "view",
      "type": "function"
    },
    {
      "inputs": [
        {
          "internalType": "bytes",
          "name": "publicKey",
          "type": "bytes"
        },
        {
          "components": [
            {
              "internalType": "address",
              "name": "token",
              "type": "address"
            },
            {
              "internalType": "uint256",
              "name": "amount",
              "type": "uint256"
            },
            {
              "internalType": "uint256",
              "name": "deadline",
              "type": "uint256"
            },
            {
              "internalType": "uint8",
              "name": "v",
              "type": "uint8"
            },
            {
              "internalType": "bytes32",
              "name": "r",
              "type": "bytes32"
            },
            {
              "internalType": "bytes32",
              "name": "s",
              "type": "bytes32"
            },
            {
              "components": [
                {
                  "internalType": "address",
                  "name": "recipientAddress",
                  "type": "address"
                },
                {
                  "internalType": "uint256",
                  "name": "amount",
                  "type": "uint256"
                },
                {
                  "internalType": "bool",
                  "name": "wrap",
                  "type": "bool"
                },
                {
                  "internalType": "bool",
                  "name": "unwrap",
                  "type": "bool"
                },
                {
                  "internalType": "bool",
                  "name": "mint",
                  "type": "bool"
                },
                {
                  "internalType": "bool",
                  "name": "burn",
                  "type": "bool"
                }
              ],
              "internalType": "struct BridgeUpgrade.Recipient[]",
              "name": "recipients",
              "type": "tuple[]"
            }
          ],
          "internalType": "struct BridgeUpgrade.PermitData[]",
          "name": "permits",
          "type": "tuple[]"
        }
      ],
      "name": "transferBalanceToLatestKey",
      "outputs": [],
      "stateMutability": "nonpayable",
      "type": "function"
    },
    {
      "inputs": [
        {
          "internalType": "address",
          "name": "newOwner",
          "type": "address"
        }
      ],
      "name": "transferOwnership",
      "outputs": [],
      "stateMutability": "nonpayable",
      "type": "function"
    },
    {
      "inputs": [
        {
          "internalType": "address",
          "name": "newImplementation",
          "type": "address"
        },
        {
          "internalType": "bytes",
          "name": "data",
          "type": "bytes"
        }
      ],
      "name": "upgradeToAndCall",
      "outputs": [],
      "stateMutability": "payable",
      "type": "function"
    },
    {
      "inputs": [],
      "name": "wrappedTokenBeacon",
      "outputs": [
        {
          "internalType": "address",
          "name": "",
          "type": "address"
        }
      ],
      "stateMutability": "view",
      "type": "function"
    }
  ],
  "bytecode": "0x60a0806040523461002a5730608052613fb69081610030823960805181818161288a01526129390152f35b600080fdfe60a08060405260043610156200001457600080fd5b60003560e01c908163075693391462002e4657508063081da8c11462002de8578063276c1ac01462002d9b5780632f91be481462002d4a578063429076961462002d1f57806347bbbdf51462002cc3578063485cc9551462002b065780634f1ef28614620028f557806352d1902d1462002875578063602db8901462002829578063715018a614620027ba5780637e1aa178146200276b5780637ecebe00146200272d5780638406c0791462002702578063893d20e814620026c95780638da5cb5b14620026c95780638f2dd2de146200267a578063a42dce801462002619578063ad3cb1cc14620025c9578063b5057a7b146200259e578063bc04f56114620008ac578063c415b95c1462000881578063d3c7c2c714620007b1578063d8397fd5146200076a578063e7c9b99214620002955763f2fde38b146200015857600080fd5b346200026957602036600319011262000269576200017562002e6c565b6200017f620035c9565b6001600160a01b0381811691908215620002835760005460008051602062003f418339815191525460405163031fb6df60e31b81529083166001600160a01b039081166004830152841660248201529160209183916044918391165afa908115620002775760009162000230575b50156200021e576200021c916001600160601b0360a01b600254161760025562000216620035c9565b62003770565b005b60405163b012a29560e01b8152600490fd5b90506020813d6020116200026e575b816200024e6020938362002ee4565b8101031262000269576200026290620032ff565b38620001ed565b600080fd5b3d91506200023f565b6040513d6000823e3d90fd5b60405163d92e233d60e01b8152600490fd5b346200026957604036600319011262000269576001600160401b036004358181116200026957620002cb90369060040162002f5e565b906024359081116200026957620002e790369060040162002fc1565b9091620002f362003604565b620002fe8162003072565b9260005b8381106200031f57600160008051602062003f6183398151915255005b6200033662000330828685620033c0565b620033f2565b80519091906001600160a01b0316156200075857600054604051631697653560e11b81526020600482015261010091829082906001600160a01b0316818062000383602482018c62002f7f565b03915afa908115620002775760009260009262000720575b5050156200070e5782516040516370a0823160e01b81526001600160a01b038981166004830152909160209183916024918391165afa9081156200027757600091620006d6575b508015620006c45742604085015110620006b2578351604051633644e51560e01b815290602090829060049082906001600160a01b03165afa90811562000277576000916200067a575b508451604051623f675f60e91b81526001600160a01b038b81166004830152909160209183916024918391165afa90811562000277576000916200063f575b506200053e906200054892620004de620004eb8d60408b0151946200049e6040519687928b602085019530908762003571565b0394620004b4601f199687810183528262002ee4565b519020604051928391602083019586909160429261190160f01b8352600283015260228201520190565b0384810183528262002ee4565b519020608088015160a08901516060808b015160408051602081019590955284019290925260f89190911b6001600160f81b03191690820152606192830181529162000538908362002ee4565b62003888565b90929192620038c7565b6001600160a01b038981169116036200062d5760018060a01b038451169160408501519260ff6060870151169360808701519160a0880151813b15620002695760405163d505accf60e01b81526001600160a01b038e16600482015230602482015260448101879052606481019390935260ff96909616608483015260a482019290925260c4810194909452600090849060e490829084905af18015620002775760019562000614948b926200061b575b505160209092015160a087901b879003908116921662003713565b0162000302565b620006269062002eb4565b8b620005f9565b604051634d96a8a760e01b8152600490fd5b90506020813d60201162000671575b816200065d6020938362002ee4565b81010312620002695751620005486200046b565b3d91506200064e565b90506020813d602011620006a9575b81620006986020938362002ee4565b81010312620002695751896200042c565b3d915062000689565b6040516305787bdf60e01b8152600490fd5b604051631e9acf1760e31b8152600490fd5b90506020813d60201162000705575b81620006f46020938362002ee4565b8101031262000269575188620003e2565b3d9150620006e5565b60405163145a1fdd60e31b8152600490fd5b62000748935080919250903d1062000750575b6200073f818362002ee4565b8101906200330d565b88806200039b565b503d62000733565b60405163772e719d60e11b8152600490fd5b3462000269576020366003190112620002695760043560075481101562000269576200079860209162003024565b905460405160039290921b1c6001600160a01b03168152f35b34620002695760003660031901126200026957604051806007548083526020809301809160076000527fa66cc928b5edb82af9bd49922954155ab7b0942694bea4ce44661d9a8736c6889060005b8682821062000863578686620008188288038362002ee4565b604051928392818401908285525180915260408401929160005b8281106200084257505050500390f35b83516001600160a01b03168552869550938101939281019260010162000832565b83546001600160a01b031685529093019260019283019201620007ff565b346200026957600036600319011262000269576002546040516001600160a01b039091168152602090f35b6101003660031901126200026957620008c462002e6c565b6001600160401b0360243511620002695760806024353603600319011262000269576044356001600160401b03811162000269576200090890369060040162002fc1565b91906064356001600160401b03811162000269576200092c90369060040162002fc1565b9390916001600160401b0360843511620002695760c06084353603600319011262000269576001600160401b0360a435116200026957620009733660a43560040162002ff4565b6001600160401b0360c43511620002695760c060c4353603600319011262000269576001600160401b0360e435116200026957620009b73660e43560040162002ff4565b919092620009c462003604565b620009f0620009ea620009e2602460843501608435600401620030c5565b369162002f22565b62003072565b6001600160a01b031633036200070e57336000526006602052604060002054918860405162000a428162000a338760208301958d8d60843560040192896200314f565b03601f19810183528262002ee4565b5190206001600160a01b0362000a5d60843560a401620032c7565b16156200028357604062000a7c602460843501608435600401620030c5565b9050036200070e5762000ab462000abb9362000aab620009ea620009e2602460843501608435600401620030c5565b93369162002f22565b9062003636565b1562001bcc576001600160a01b0362000ad960c43560a401620032c7565b16620024f6575b50505060005b828110620021f157506001600160a01b03915062000b0b905060c43560a401620032c7565b1615928062000fe9575b50505062000df3576000546001600160a01b031662000b3e6084356024810190600401620030c5565b919062000b50604460843501620032c7565b9262000b61606460843501620032c7565b9362000b716084803501620032c7565b62000b8160a460843501620032c7565b62000b97602460c4350160c435600401620030c5565b9062000ba8604460c43501620032c7565b9462000bb9606460c43501620032c7565b9262000bca608460c43501620032c7565b9462000bdb60a460c43501620032c7565b968b3b1562000269576040516385687dcd60e01b815261014060048201529c8d9b8c9b62000c10916101448e0191906200312e565b6001600160a01b0395861660248d015290851660448c015290841660648b0152921660848901528782036003190160a489015262000c4e926200312e565b6001600160a01b0394851660c487015290841660e4860152908316610104850152911661012483015203815a6000948591f18015620002775762000de1575b5060008051602062003f41833981519152546001600160a01b031633811462000cfc575b505b33600052600660205260406000208054906002820180921162000ce65755600160008051602062003f6183398151915255005b634e487b7160e01b600052601160045260246000fd5b62000d0c604460c43501620032c7565b62000d16620035c9565b6001600160a01b038116918215620002835760005460405163031fb6df60e31b81526001600160a01b03928316600482015283831660248201529160209183916044918391165afa908115620002775760009162000d9f575b50156200021e5762000d98916001600160601b0360a01b600254161760025562000216620035c9565b8062000cb1565b90506020813d60201162000dd8575b8162000dbd6020938362002ee4565b81010312620002695762000dd190620032ff565b8362000d6f565b3d915062000dae565b62000dec9062002eb4565b8062000c8d565b6000546001600160a01b031662000e146084356024810190600401620030c5565b916044608435019262000e2784620032c7565b9162000e38606460843501620032c7565b9362000e486084803501620032c7565b62000e5860a460843501620032c7565b93833b15620002695760009562000e91958793604051998a98899788966330a6293b60e11b885260a0600489015260a48801916200312e565b6001600160a01b039485166024870152908416604486015290831660648501529116608483015203925af18015620002775762000fd7575b5060008051602062003f41833981519152546001600160a01b03169033821462000ef6575b505062000cb3565b62000f0190620032c7565b62000f0b620035c9565b6001600160a01b038116918215620002835760005460405163031fb6df60e31b81526001600160a01b03928316600482015283831660248201529160209183916044918391165afa908115620002775760009162000f95575b50156200021e5762000f8d916001600160601b0360a01b600254161760025562000216620035c9565b808062000eee565b90506020813d60201162000fce575b8162000fb36020938362002ee4565b81010312620002695762000fc790620032ff565b8362000f64565b3d915062000fa4565b62000fe29062002eb4565b8162000ec9565b6000546200103c90610100906001600160a01b0316620010136084356024810190600401620030c5565b604051631697653560e11b8152602060048201529485939284928392916024840191906200312e565b03915afa801562000277578591600091620021c9575b5081620021c0575b506200075857600060805283620021a7576200107b604460c43501620032c7565b6080525b62001099620009e2602460843501608435600401620030c5565b906000906000620010ac60009462003072565b9260005b838110620020d3575b5015620020c157806200209d575b6200021e57909192936000935b828510620010e55750505062000b15565b620010fb620003308685899a96979899620033c0565b80519097600195909160009081906001600160a01b0387811691161462001f38575b8a516001600160a01b03161515918262001f2e575b508162001f24575b508062001f13575b62001c74575b851562001aba575b88516001600160a01b03161594600092835b60c08c0151805186101562001a1457856200117d916200368e565b5180519091906001600160a01b031615620002835760208201518d811562001a07576020015110620019f5578c6060830151151580620019de575b15620014c557516040516370a0823160e01b815233600482015290602090829060249082906001600160a01b03165afa90811562000277576000916200148d575b50602083015180911062000269578d51620012229190309033906001600160a01b031662003713565b8c516020830151906001600160a01b0316803b156200026957604051632770a7eb60e21b815230600482015260248101929092526000908290604490829084905af1801562000277576200147b575b5060018060a01b038d5116600052600560205260406000209160405192620012998462002e98565b80546001600160a01b039081168552600190910154811660208501528e518f911680620013fe575090620013609291600194620012f7620012db6012620036be565b620012f1602086015160248035013590620036d0565b620036e4565b6200130781602086015162003705565b878060a01b038351168015600014620013b957506200132b91925060805162003828565b806200139d575b505b62001349602082015160208401519062003705565b90816200136a575b50506020905b015190620032dc565b945b019362001162565b90602092936200138e8262001394946080519033908b8060a01b0390511662003713565b620032dc565b91908f62001351565b620013b290868060a01b036002541662003828565b3862001332565b608051620013c8929162003846565b80620013d7575b505062001334565b620013f691878060a01b03905116878060a01b03600254169062003846565b3880620013cf565b60405163313ce56760e01b815293929150602090849060049082905afa801562000277578f9094620012f7620012db600197620013609760009162001445575b50620036be565b6200146c915060203d60201162001473575b62001463818362002ee4565b810190620036a3565b386200143e565b503d62001457565b620014869062002eb4565b8d62001271565b90506020813d602011620014bc575b81620014ab6020938362002ee4565b810103126200026957518e620011f9565b3d91506200149c565b5060a0820151151580620019c7575b1562001561578c51825160208401516001600160a01b03928316939290911690833b156200026957604051632770a7eb60e21b81526001600160a01b0390921660048301526024820152916000908390818381604481015b03925af18015620002775760019362001360936020926200154f575b5062001357565b6200155a9062002eb4565b3862001548565b6080820151151580620019b0575b1562001633578c516001600160a01b031680620015f75750620015a66200159b620012db6012620036be565b602084015162003705565b8d5183516001600160a01b039182169392911690833b1562000269576040516340c10f1960e01b81526001600160a01b0390921660048301526024820152916000908390818381604481016200152c565b60206004916040519283809263313ce56760e01b82525afa80156200027757620012db6200159b91620015a693600091620014455750620036be565b8c8a604084015115158062001999575b156200193057505060018060a01b038d5116600052600560205260406000209060405191620016728362002e98565b80546001600160a01b03908116845260019091015416602083015289620019175781516040516370a0823160e01b815233600482015290602090829060249082906001600160a01b03165afa9081156200027757600091620018df575b5060208401511162000269575b8d516001600160a01b031680620018a357506200174062001718620017026012620036be565b620012f1602087015160248035013590620036d0565b928b1562001852578362001833575b602060018060a01b039101511692602085015162003705565b91803b1562000269576040516340c10f1960e01b81526080516001600160a01b0316600482015260248101939093526000908390604490829084905af192831562000277578e620013609360019562001821575b5060208201516020820151808210620017b4575b50505060209062001357565b90620017c09162003705565b908b82620017d2575b819250620017a8565b938291620017fd9360209596898060a01b03161560001462001807576200138e915060805162003828565b91908f8b620017c9565b6200138e916080519033908b8060a01b0390511662003713565b6200182c9062002eb4565b3862001794565b6002546200184c9085906001600160a01b031662003828565b62001727565b6200187b60018060a01b038251166200187086602089015162003705565b903090339062003713565b8315620017275780516002546200184c9186916001600160a01b039081169133911662003713565b60206004916040519283809263313ce56760e01b82525afa801562000277576200170262001718916200174093600091620014455750620036be565b90506020813d6020116200190e575b81620018fd6020938362002ee4565b810103126200026957518f620016cf565b3d9150620018ee565b966200192990602084015190620032dc565b96620016dc565b60019362001360939260209262001948575062001357565b8c156200196f575062001968858060a01b03825116838301519062003828565b8f62001548565b6200199390868060a01b03905116868060a01b038351168484015191339062003713565b62001968565b5081516001600160a01b038b811691161462001643565b508c516001600160a01b038981169116146200156f565b508c516001600160a01b03898116911614620014d4565b5080516001600160a01b038a8116911614620011b8565b60405163143d1ae760e21b8152600490fd5b5050946001915062001362565b50935097955098909397929562001a50575b602001510362001a3e576001019394909192620010d4565b6040516312171d8360e31b8152600490fd5b62001a6082602083015162003705565b8062001a6e575b5062001a26565b909160209162001a95916001600160a01b038b1662001a9d576200138e8260805162003828565b919062001a67565b60805185516200138e91849133906001600160a01b031662003713565b426044602435013510620006b2576001600160a01b0362001ae0600460243501620032c7565b1662001c065762001af26012620036be565b6024803501351162001bf45762001b0e602435600401620032c7565b6040519060018060a01b0316602082015260248035013560408201526060604460243501358183015281528060808101106001600160401b0360808301111762001bde5760808101604052602081519101207f19457468657265756d205369676e6564204d6573736167653a0a333200000000600052601c5262001bb56200053e603c60002062001bae620009e2606460243501602435600401620030c5565b9062003888565b6003546001600160a01b0391821691161462001150575b604051638baa579f60e01b8152600490fd5b634e487b7160e01b600052604160045260246000fd5b604051630adad23360e31b8152600490fd5b600460206001600160a01b0362001c216024358401620032c7565b166040519283809263313ce56760e01b82525afa8015620002775762001af29160009162001c505750620036be565b62001c6d915060203d602011620014735762001463818362002ee4565b8b6200143e565b60408901514211620006b2578851604051633644e51560e01b815290602090829060049082906001600160a01b03165afa908115620002775760009162001edb575b5060208a8101518b51604051623f675f60e91b81523360048201529290839060249082906001600160a01b03165afa801562000277578c9260009162001e9b575b509262000a3362001d2e849362001d8096620004b460406200053e9801519162000a33604051938492602084019630338962003571565b519020608082015160a083015160609384015160408051602081019490945283019190915260f81b6001600160f81b031916928101929092526200053882606181015b03601f19810184528362002ee4565b6001600160a01b0388811691160362001e3c575b8860018060a01b0381511660208201519060408301519060ff6060850151169160a06080860151950151823b15620002695760405163d505accf60e01b81523360048201523060248201526044810195909552606485019190915260ff92909216608484015260a483019390935260c482015290600090829060e490829084905af18015620002775762001e2a575b5062001148565b62001e359062002eb4565b8962001e23565b91936000989691939795985b60c0880151805182101562001e8a576001600160a01b039062001e6d9083906200368e565b51511660018060a01b0360805116036200062d5760010162001e48565b505093919794969290959762001d94565b919250506020813d60201162001ed2575b8162001ebb6020938362002ee4565b810103126200026957518b919062000a3362001cf7565b3d915062001eac565b90506020813d60201162001f0a575b8162001ef96020938362002ee4565b810103126200026957518a62001cb6565b3d915062001eea565b5060ff60608a015116151562001142565b9050158a6200113a565b1591508b62001132565b97929190989560009a9794959a5b60c089015180518210156200208a578162001f61916200368e565b516040810151158015906200207c575b80156200206e575b801562002060575b62001fb9575b608081015162001faf575b60a0015162001fa5575b60010162001f46565b6001995062001f9c565b60019b5062001f92565b600096506001600160a01b038d1615158062002029575b8062001fef575b1562001f8757604051630adad23360e31b8152600490fd5b5062002000602435600401620032c7565b6001600160a01b038e811660009081526005602052604090206001015481169116141562001fd7565b506200203a602435600401620032c7565b6001600160a01b038e811660009081526005602052604090205481169116141562001fd0565b5060a0810151151562001f81565b506060810151151562001f79565b506080810151151562001f71565b505095989091929799949396996200111d565b5060008051602062003f41833981519152546001600160a01b0316331415620010c7565b604051633bee968760e01b8152600490fd5b620020e46200033082868a620033c0565b80516001600160a01b031680156200219d575b6001600160a01b038a161462002112575b50600101620010b0565b979593919096949260c060009901985b895180518210156200218b57816200213a916200368e565b51608081015115908115916200217c575b506200215a5760010162002122565b5050909294965060019591939591825b62002176578962002108565b620010b9565b60a09150015115158c6200214b565b5050809395979192949698506200216a565b60019350620020f7565b620021b7604460843501620032c7565b6080526200107f565b9050856200105a565b620021e891506101003d6101001162000750576200073f818362002ee4565b90508662001052565b8060051b820135607e1983360301811215620002695760808184013603126200026957604051908160808101106001600160401b0360808401111762001bde57608082016040526200224581850162002e83565b8252602081850101356001600160401b03811162000269576200226e9036908387010162002f5e565b6020830152604081850101356001600160401b03811162000269576200229a9036908387010162002f5e565b6040830152620022b06060809286010162002e83565b8282015281516001600160a01b0390811660009081526005602052604090206001015416620024e4578101516001600160a01b0316801562002400575b8151604051906001600160a01b0316620023078262002e98565b81526001600160a01b0391821660208083018281528551851660009081526005909252604091829020935184549086166001600160a01b03199182161785559051600194850180549187169183169190911790558551915192949093929116620023718262002e98565b815260208101938085526000526005602052604060002090828060a01b0390511683825416178155019160018060a01b039051169082541617905560018060a01b0390511690600754916801000000000000000083101562001bde57620023e083600180950160075562003024565b819291549060031b91821b91858060a01b03901b19161790550162000ae6565b506200244862002476602083015160408401516200245b60018060a01b0360005416916040519586946303bf912560e11b60208701526080602487015260a486019062002f7f565b8481036023190160448601529062002f7f565b90306064840152608483015203601f19810183528262002ee4565b60045460405191906001600160a01b03166001600160401b0361049484019081119084111762001bde578291620024c99161049462003aad85396104948401908152604060208201819052019062002f7f565b03906000f0801562000277576001600160a01b0316620022ed565b604051636bb9e87d60e01b8152600490fd5b60018101811162000ce657604051620025268162000a3360016020830195018b8a8a60c43560040192896200314f565b519020604062002541602460c4350160c435600401620030c5565b9050036200070e576001600160a01b036200256160c43560a401620032c7565b1615620002835762000ab46200258f9362000aab620009ea620009e2602460c4350160c435600401620030c5565b1562001bcc5785808062000ae0565b346200026957600036600319011262000269576000546040516001600160a01b039091168152602090f35b3462000269576000366003190112620002695762002615604051620025ee8162002e98565b60058152640352e302e360dc1b602082015260405191829160208352602083019062002f7f565b0390f35b346200026957602036600319011262000269576200263662002e6c565b62002640620035c9565b6001600160a01b0316801562002668576001600160601b0360a01b6002541617600255600080f35b60405163bb0bac9960e01b8152600490fd5b346200026957602036600319011262000269576200269762002e6c565b620026a1620035c9565b6001600160a01b0316801562000283576001600160601b0360a01b6004541617600455600080f35b3462000269576000366003190112620002695760008051602062003f41833981519152546040516001600160a01b039091168152602090f35b346200026957600036600319011262000269576001546040516001600160a01b039091168152602090f35b346200026957602036600319011262000269576001600160a01b036200275262002e6c565b1660005260066020526020604060002054604051908152f35b346200026957602036600319011262000269576200278862002e6c565b62002792620035c9565b6001600160a01b0316801562000283576001600160601b0360a01b6003541617600355600080f35b34620002695760003660031901126200026957620027d7620035c9565b60008051602062003f4183398151915280546001600160a01b031981169091556000906001600160a01b03167f8be0079c531659141344cd1fd0a4f28419497f9722a3daafe3b4186f6b6457e08280a3005b346200026957602036600319011262000269576200284662002e6c565b62002850620035c9565b479081156200026957600080809381935af16200286c62003090565b50156200026957005b346200026957600036600319011262000269577f00000000000000000000000000000000000000000000000000000000000000006001600160a01b03163003620028e35760206040517f360894a13ba1a3210667c828492db98dca3e2076cc3735a920a3ca505d382bbc8152f35b60405163703e46dd60e11b8152600490fd5b604036600319011262000269576200290c62002e6c565b6024356001600160401b03811162000269576200292e90369060040162002f5e565b906001600160a01b037f0000000000000000000000000000000000000000000000000000000000000000811630811490811562002ad7575b50620028e35762002976620035c9565b8116906040516352d1902d60e01b8152602081600481865afa6000918162002a9d575b50620029b857604051634c9c8ce360e01b815260048101849052602490fd5b7f360894a13ba1a3210667c828492db98dca3e2076cc3735a920a3ca505d382bbc9291929081810362002a855750823b1562002a6c5780546001600160a01b03191682179055604051907fbc7cd75a20ee27fd9adebab32041f755214dbc6bffa90cc0225b39da2e5c2d3b600080a282511562002a5257506000808360206200021c95519101845af462002a4b62003090565b9162003a44565b9150503462002a5d57005b63b398979f60e01b8152600490fd5b604051634c9c8ce360e01b815260048101839052602490fd5b60249060405190632a87526960e21b82526004820152fd5b9091506020813d60201162002ace575b8162002abc6020938362002ee4565b81010312620002695751908562002999565b3d915062002aad565b9050817f360894a13ba1a3210667c828492db98dca3e2076cc3735a920a3ca505d382bbc541614158462002966565b3462000269576040366003190112620002695762002b2362002e6c565b6001600160a01b03906024358281169081900362000269577ff0c57e16840df040f15088dc2f81fe391c3923bec73e23a9662efc9c229c6a009283549260ff8460401c1615936001600160401b0381168015908162002cba575b600114908162002caf575b15908162002ca5575b5062002c935767ffffffffffffffff19811660011786558462002c73575b5062002bba620037e6565b62002bc4620037e6565b62002bcf3362003770565b62002bd9620037e6565b62002be3620037e6565b62002bed620037e6565b600160008051602062003f618339815191525516801562000283576001600160601b0360a01b9081600054161760005533816002541617600255600454161760045562002c3657005b68ff00000000000000001981541690557fc7f505b2f371ae2175ee4913f4499e1f2633a7b5936321eed1cdaeb6115181d2602060405160018152a1005b68ffffffffffffffffff1916680100000000000000011785558562002baf565b60405163f92ee8a960e01b8152600490fd5b9050158762002b91565b303b15915062002b88565b86915062002b7d565b346200026957602036600319011262000269576001600160a01b038062002ce962002e6c565b16600090815260056020908152604091829020805460019091015483516001600160a01b03928616831681529416169083015290f35b346200026957600036600319011262000269576004546040516001600160a01b039091168152602090f35b346200026957600036600319011262000269576200261560405162002d6f8162002e98565b600a8152696272696467652076313360b01b602082015260405191829160208352602083019062002f7f565b346200026957602036600319011262000269576004356001600160401b038111620002695762002dd6620009ea602092369060040162002f5e565b6040516001600160a01b039091168152f35b346200026957602036600319011262000269576020806001600160a01b038062002e1162002e6c565b166000526005825260406000209060016040519262002e308462002e98565b8281541684520154169182910152604051908152f35b346200026957600036600319011262000269576003546001600160a01b03168152602090f35b600435906001600160a01b03821682036200026957565b35906001600160a01b03821682036200026957565b604081019081106001600160401b0382111762001bde57604052565b6001600160401b03811162001bde57604052565b60e081019081106001600160401b0382111762001bde57604052565b90601f801991011681019081106001600160401b0382111762001bde57604052565b6001600160401b03811162001bde57601f01601f191660200190565b92919262002f308262002f06565b9162002f40604051938462002ee4565b82948184528183011162000269578281602093846000960137010152565b9080601f83011215620002695781602062002f7c9335910162002f22565b90565b919082519283825260005b84811062002fac575050826000602080949584010152601f8019910116010190565b60208183018101518483018201520162002f8a565b9181601f8401121562000269578235916001600160401b03831162000269576020808501948460051b0101116200026957565b9181601f8401121562000269578235916001600160401b0383116200026957602083818601950101116200026957565b6007548110156200305c5760076000527fa66cc928b5edb82af9bd49922954155ab7b0942694bea4ce44661d9a8736c6880190600090565b634e487b7160e01b600052603260045260246000fd5b60408151036200070e5780516020909101206001600160a01b031690565b3d15620030c0573d90620030a48262002f06565b91620030b4604051938462002ee4565b82523d6000602084013e565b606090565b903590601e19813603018212156200026957018035906001600160401b03821162000269576020019181360383136200026957565b9035601e1982360301811215620002695701602081359101916001600160401b038211620002695781360383136200026957565b908060209392818452848401376000828201840152601f01601f1916010190565b94929095936080928387019060018060a01b0380991688528360209286848b01525260a0880160a08560051b8a010194826000906000915b8383106200322257505050505050966200321960a08093620031d68a9b8b604060609b9c9d8a039101528235885260c0620031c582850185620030fa565b9190928a015260c08901916200312e565b9684620031e66040840162002e83565b16604088015284620031fa8a840162002e83565b1689880152846200320d82840162002e83565b16908701520162002e83565b16910152930152565b909192939497609f198d82030186528835607e1984360301811215620032c357878f6001938d620032a062003282898697019285620032618562002e83565b1685526200327287850185620030fa565b909180898801528601916200312e565b60406200329281850185620030fa565b91868403908701526200312e565b92620032b0606080930162002e83565b169101529a019601949301919062003187565b8280fd5b356001600160a01b0381168103620002695790565b9190820180921162000ce657565b51906001600160a01b03821682036200026957565b519081151582036200026957565b809291036101008112620002695760e0136200026957604051620033318162002ec8565b6200333c83620032ea565b81526200334c60208401620032ea565b60208201526200335f60408401620032ea565b60408201526200337260608401620032ea565b60608201526200338560808401620032ea565b60808201526200339860a08401620032ff565b60a082015260c08301516003811015620002695760c08201529162002f7c9060e001620032ff565b91908110156200305c5760051b8101359060de198136030182121562000269570190565b359081151582036200026957565b60e081360312620002695760408051916200340d8362002ec8565b620034188162002e83565b8352602080820135818501528282013583850152606090606083013560ff81168103620002695760608601526080916080840135608087015260a09360a081013560a088015260c094858201356001600160401b03928382116200026957019436601f87011215620002695785359383851162001bde57885198620034a3878760051b018b62002ee4565b858a528689818c0197028901019736891162000269578701955b888710620034d45750505050505050505082015290565b898736031262000269578151908a820190828210888311176200355c578b928a928552620035028a62002e83565b8152828a01358382015262003519858b01620033e4565b858201526200352a868b01620033e4565b868201526200353b878b01620033e4565b878201526200354c888b01620033e4565b88820152815201960195620034bd565b60246000634e487b7160e01b81526041600452fd5b7f6e71edae12b1b97f4d1f60370fef10105fa2faae0126114a169c64845d6126c981526001600160a01b039182166020820152911660408201526060810191909152608081019190915260a081019190915260c00190565b60008051602062003f41833981519152546001600160a01b03163303620035ec57565b60405163118cdaa760e01b8152336004820152602490fd5b60008051602062003f618339815191526002815414620036245760029055565b604051633ee5aeb560e01b8152600490fd5b6200367d929162003673917f19457468657265756d205369676e6564204d6573736167653a0a333200000000600052601c52603c60002062003888565b90939193620038c7565b6001600160a01b0391821691161490565b80518210156200305c5760209160051b010190565b9081602091031262000269575160ff81168103620002695790565b60ff16604d811162000ce657600a0a90565b8181029291811591840414171562000ce657565b8115620036ef570490565b634e487b7160e01b600052601260045260246000fd5b9190820391821162000ce657565b6040516323b872dd60e01b60208201526001600160a01b03928316602482015292909116604483015260648083019390935291815260a08101918183106001600160401b0384111762001bde576200376e9260405262003951565b565b6001600160a01b03908116908115620037cd5760008051602062003f4183398151915280546001600160a01b031981168417909155167f8be0079c531659141344cd1fd0a4f28419497f9722a3daafe3b4186f6b6457e0600080a3565b604051631e4fbdf760e01b815260006004820152602490fd5b60ff7ff0c57e16840df040f15088dc2f81fe391c3923bec73e23a9662efc9c229c6a005460401c16156200381657565b604051631afcd79f60e31b8152600490fd5b60008080938193617530f16200383d62003090565b501562001a3e57565b60405163a9059cbb60e01b60208201526001600160a01b03909216602483015260448201929092526200376e9162003882826064810162001d71565b62003951565b8151919060418303620038bc57620038b592506020820151906060604084015193015160001a90620039b1565b9192909190565b505060009160029190565b60048110156200393b5780620038db575050565b60018103620038f65760405163f645eedf60e01b8152600490fd5b60028103620039185760405163fce698f760e01b815260048101839052602490fd5b600314620039235750565b602490604051906335e2f38360e21b82526004820152fd5b634e487b7160e01b600052602160045260246000fd5b906000602091828151910182855af11562000277576000513d620039a757506001600160a01b0381163b155b620039855750565b604051635274afe760e01b81526001600160a01b039091166004820152602490fd5b600114156200397d565b91907f7fffffffffffffffffffffffffffffff5d576e7357a4501ddfe92f46681b20a0841162003a3857926020929160ff608095604051948552168484015260408301526060820152600092839182805260015afa1562003a2c5780516001600160a01b0381161562003a2357918190565b50809160019190565b604051903d90823e3d90fd5b50505060009160039190565b9062003a6d575080511562003a5b57805190602001fd5b60405163d6bda27560e01b8152600490fd5b8151158062003aa2575b62003a80575090565b604051639996b31560e01b81526001600160a01b039091166004820152602490fd5b50803b1562003a7756fe60a0604090808252346101eb57610494803803809161001e828561029a565b8339810182828203126101eb57610034826102d3565b60208084015191939091906001600160401b0382116101eb570182601f820112156101eb57805190610065826102e7565b936100728751958661029a565b8285528383830101116101eb57829060005b83811061028657505060009184010152823b15610266577fa3f0ad74e5423aebfd80d3ef4346578335a9a72aeaee59ff6cb3582b35133d5080546001600160a01b0319166001600160a01b038581169182179092558551635c60da1b60e01b8082529194928482600481895afa91821561025b57600092610224575b50813b1561020b575050837f1cf3b03a6cf19fa2baba4df148e9dcabedea7f8a5c07840e207e5c089be95d3e600080a2815115610202578290600487518096819382525afa9283156101f7576000936101b5575b5091600080848461019296519101845af4903d156101ac573d610176816102e7565b906101838851928361029a565b8152600081943d92013e610302565b505b6080525161012e908161036682396080518160180152f35b60609250610302565b92508183813d83116101f0575b6101cc818361029a565b810103126101eb576000806101e3610192956102d3565b945050610154565b600080fd5b503d6101c2565b85513d6000823e3d90fd5b50505050610194565b8751634c9c8ce360e01b81529116600482015260249150fd5b9091508481813d8311610254575b61023c818361029a565b810103126101eb5761024d906102d3565b9038610100565b503d610232565b88513d6000823e3d90fd5b8351631933b43b60e21b81526001600160a01b0384166004820152602490fd5b818101830151868201840152849201610084565b601f909101601f19168101906001600160401b038211908210176102bd57604052565b634e487b7160e01b600052604160045260246000fd5b51906001600160a01b03821682036101eb57565b6001600160401b0381116102bd57601f01601f191660200190565b90610329575080511561031757805190602001fd5b60405163d6bda27560e01b8152600490fd5b8151158061035c575b61033a575090565b604051639996b31560e01b81526001600160a01b039091166004820152602490fd5b50803b1561033256fe60806040819052635c60da1b60e01b81526020816004817f00000000000000000000000000000000000000000000000000000000000000006001600160a01b03165afa90811560a9576000916054575b5060da565b905060203d60201160a3575b601f8101601f191682019167ffffffffffffffff831181841017608d576088926040520160b5565b38604f565b634e487b7160e01b600052604160045260246000fd5b503d6060565b6040513d6000823e3d90fd5b602090607f19011260d5576080516001600160a01b038116810360d55790565b600080fd5b6000808092368280378136915af43d82803e1560f4573d90f35b3d90fdfea26469706673582212200db6467706d76aed567b8f75248dc5abca00b79b2786c9696fcc71abb51ed3cd64736f6c634300081800339016d09d72d40fdae2fd8ceac6b6234c7706214fd39c1cd1e609a0528c1993009b779b17422d0df92223018b32b4d1fa46e071723d6817e2486d003becc55f00a26469706673582212207af541a466f12a8293c4de5dee4498ba754c88fd1f8655e913e6ed637222ed9264736f6c63430008180033",
  "linkReferences": {},
  "deployedLinkReferences": {}
}