{
  "_format": "hh-sol-artifact-1",
  "contractName": "Bridge",
  "sourceName": "contracts/Bridge.sol",
  "abi": [
    {
      "inputs": [
        {
          "internalType": "address",
          "name": "target",
          "type": "address"
        }
      ],
      "name": "AddressEmptyCode",
      "type": "error"
    },
    {
      "inputs": [],
      "name": "AmountTooLow",
      "type": "error"
    },
    {
      "inputs": [],
      "name": "BurnAmountZero",
      "type": "error"
    },
    {
      "inputs": [],
      "name": "ECDSAInvalidSignature",
      "type": "error"
    },
    {
      "inputs": [
        {
          "internalType": "uint256",
          "name": "length",
          "type": "uint256"
        }
      ],
      "name": "ECDSAInvalidSignatureLength",
      "type": "error"
    },
    {
      "inputs": [
        {
          "internalType": "bytes32",
          "name": "s",
          "type": "bytes32"
        }
      ],
      "name": "ECDSAInvalidSignatureS",
      "type": "error"
    },
    {
      "inputs": [
        {
          "internalType": "address",
          "name": "implementation",
          "type": "address"
        }
      ],
      "name": "ERC1967InvalidImplementation",
      "type": "error"
    },
    {
      "inputs": [],
      "name": "ERC1967NonPayable",
      "type": "error"
    },
    {
      "inputs": [],
      "name": "EthTransferFailed",
      "type": "error"
    },
    {
      "inputs": [],
      "name": "FailedCall",
      "type": "error"
    },
    {
      "inputs": [],
      "name": "FeeTransferFailed",
      "type": "error"
    },
    {
      "inputs": [],
      "name": "InsufficientAllowance",
      "type": "error"
    },
    {
      "inputs": [],
      "name": "InsufficientBalance",
      "type": "error"
    },
    {
      "inputs": [
        {
          "internalType": "address",
          "name": "token",
          "type": "address"
        }
      ],
      "name": "InsufficientPermits",
      "type": "error"
    },
    {
      "inputs": [],
      "name": "InvalidFeeCollector",
      "type": "error"
    },
    {
      "inputs": [],
      "name": "InvalidFeeRate",
      "type": "error"
    },
    {
      "inputs": [],
      "name": "InvalidInitialization",
      "type": "error"
    },
    {
      "inputs": [],
      "name": "InvalidOwnershipTransfer",
      "type": "error"
    },
    {
      "inputs": [],
      "name": "InvalidPermits",
      "type": "error"
    },
    {
      "inputs": [],
      "name": "InvalidPrerotatedKeyHash",
      "type": "error"
    },
    {
      "inputs": [],
      "name": "InvalidPublicKey",
      "type": "error"
    },
    {
      "inputs": [],
      "name": "InvalidRecipientAmount",
      "type": "error"
    },
    {
      "inputs": [],
      "name": "InvalidRecipientForNonMatchingSigner",
      "type": "error"
    },
    {
      "inputs": [],
      "name": "InvalidSignature",
      "type": "error"
    },
    {
      "inputs": [],
      "name": "MissingPermit",
      "type": "error"
    },
    {
      "inputs": [],
      "name": "NoTokenPairs",
      "type": "error"
    },
    {
      "inputs": [],
      "name": "NotInitializing",
      "type": "error"
    },
    {
      "inputs": [
        {
          "internalType": "address",
          "name": "contractAddress",
          "type": "address"
        }
      ],
      "name": "NotOwnerOfTarget",
      "type": "error"
    },
    {
      "inputs": [
        {
          "internalType": "address",
          "name": "owner",
          "type": "address"
        }
      ],
      "name": "OwnableInvalidOwner",
      "type": "error"
    },
    {
      "inputs": [
        {
          "internalType": "address",
          "name": "account",
          "type": "address"
        }
      ],
      "name": "OwnableUnauthorizedAccount",
      "type": "error"
    },
    {
      "inputs": [],
      "name": "PermitDeadlineExpired",
      "type": "error"
    },
    {
      "inputs": [],
      "name": "ReentrancyGuardReentrantCall",
      "type": "error"
    },
    {
      "inputs": [
        {
          "internalType": "address",
          "name": "token",
          "type": "address"
        }
      ],
      "name": "SafeERC20FailedOperation",
      "type": "error"
    },
    {
      "inputs": [],
      "name": "TokenPairExists",
      "type": "error"
    },
    {
      "inputs": [],
      "name": "TokenPairNotSupported",
      "type": "error"
    },
    {
      "inputs": [],
      "name": "TransferFailed",
      "type": "error"
    },
    {
      "inputs": [],
      "name": "UUPSUnauthorizedCallContext",
      "type": "error"
    },
    {
      "inputs": [
        {
          "internalType": "bytes32",
          "name": "slot",
          "type": "bytes32"
        }
      ],
      "name": "UUPSUnsupportedProxiableUUID",
      "type": "error"
    },
    {
      "inputs": [
        {
          "internalType": "address",
          "name": "contractAddress",
          "type": "address"
        },
        {
          "internalType": "string",
          "name": "reason",
          "type": "string"
        }
      ],
      "name": "UpgradeFailed",
      "type": "error"
    },
    {
      "inputs": [],
      "name": "ZeroAddress",
      "type": "error"
    },
    {
      "anonymous": false,
      "inputs": [
        {
          "indexed": false,
          "internalType": "uint64",
          "name": "version",
          "type": "uint64"
        }
      ],
      "name": "Initialized",
      "type": "event"
    },
    {
      "anonymous": false,
      "inputs": [
        {
          "indexed": true,
          "internalType": "address",
          "name": "previousOwner",
          "type": "address"
        },
        {
          "indexed": true,
          "internalType": "address",
          "name": "newOwner",
          "type": "address"
        }
      ],
      "name": "OwnershipTransferred",
      "type": "event"
    },
    {
      "anonymous": false,
      "inputs": [
        {
          "indexed": true,
          "internalType": "address",
          "name": "implementation",
          "type": "address"
        }
      ],
      "name": "Upgraded",
      "type": "event"
    },
    {
      "inputs": [],
      "name": "UPGRADE_INTERFACE_VERSION",
      "outputs": [
        {
          "internalType": "string",
          "name": "",
          "type": "string"
        }
      ],
      "stateMutability": "view",
      "type": "function"
    },
    {
      "inputs": [
        {
          "internalType": "address",
          "name": "to",
          "type": "address"
        }
      ],
      "name": "emergencyWithdrawBNB",
      "outputs": [],
      "stateMutability": "nonpayable",
      "type": "function"
    },
    {
      "inputs": [],
      "name": "feeCollector",
      "outputs": [
        {
          "internalType": "address",
          "name": "",
          "type": "address"
        }
      ],
      "stateMutability": "view",
      "type": "function"
    },
    {
      "inputs": [],
      "name": "feeSigner",
      "outputs": [
        {
          "internalType": "address",
          "name": "",
          "type": "address"
        }
      ],
      "stateMutability": "view",
      "type": "function"
    },
    {
      "inputs": [
        {
          "internalType": "bytes",
          "name": "publicKey",
          "type": "bytes"
        }
      ],
      "name": "getAddressFromPublicKey",
      "outputs": [
        {
          "internalType": "address",
          "name": "",
          "type": "address"
        }
      ],
      "stateMutability": "pure",
      "type": "function"
    },
    {
      "inputs": [],
      "name": "getOwner",
      "outputs": [
        {
          "internalType": "address",
          "name": "",
          "type": "address"
        }
      ],
      "stateMutability": "view",
      "type": "function"
    },
    {
      "inputs": [],
      "name": "getSupportedTokens",
      "outputs": [
        {
          "internalType": "address[]",
          "name": "",
          "type": "address[]"
        }
      ],
      "stateMutability": "view",
      "type": "function"
    },
    {
      "inputs": [
        {
          "internalType": "address",
          "name": "_keyLogRegistry",
          "type": "address"
        },
        {
          "internalType": "address",
          "name": "_wrappedTokenBeacon",
          "type": "address"
        }
      ],
      "name": "initialize",
      "outputs": [],
      "stateMutability": "nonpayable",
      "type": "function"
    },
    {
      "inputs": [],
      "name": "keyLogRegistry",
      "outputs": [
        {
          "internalType": "contract KeyLogRegistry",
          "name": "",
          "type": "address"
        }
      ],
      "stateMutability": "view",
      "type": "function"
    },
    {
      "inputs": [
        {
          "internalType": "address",
          "name": "",
          "type": "address"
        }
      ],
      "name": "nonces",
      "outputs": [
        {
          "internalType": "uint256",
          "name": "",
          "type": "uint256"
        }
      ],
      "stateMutability": "view",
      "type": "function"
    },
    {
      "inputs": [
        {
          "internalType": "address",
          "name": "originalToken",
          "type": "address"
        }
      ],
      "name": "originalToWrapped",
      "outputs": [
        {
          "internalType": "address",
          "name": "",
          "type": "address"
        }
      ],
      "stateMutability": "view",
      "type": "function"
    },
    {
      "inputs": [],
      "name": "owner",
      "outputs": [
        {
          "internalType": "address",
          "name": "",
          "type": "address"
        }
      ],
      "stateMutability": "view",
      "type": "function"
    },
    {
      "inputs": [],
      "name": "proxiableUUID",
      "outputs": [
        {
          "internalType": "bytes32",
          "name": "",
          "type": "bytes32"
        }
      ],
      "stateMutability": "view",
      "type": "function"
    },
    {
      "inputs": [
        {
          "internalType": "address",
          "name": "token",
          "type": "address"
        },
        {
          "components": [
            {
              "internalType": "address",
              "name": "token",
              "type": "address"
            },
            {
              "internalType": "uint256",
              "name": "fee",
              "type": "uint256"
            },
            {
              "internalType": "uint256",
              "name": "expires",
              "type": "uint256"
            },
            {
              "internalType": "bytes",
              "name": "signature",
              "type": "bytes"
            }
          ],
          "internalType": "struct Bridge.FeeInfo",
          "name": "fee",
          "type": "tuple"
        },
        {
          "components": [
            {
              "internalType": "address",
              "name": "originalToken",
              "type": "address"
            },
            {
              "internalType": "string",
              "name": "tokenName",
              "type": "string"
            },
            {
              "internalType": "string",
              "name": "tokenSymbol",
              "type": "string"
            },
            {
              "internalType": "address",
              "name": "wrappedToken",
              "type": "address"
            }
          ],
          "internalType": "struct Bridge.TokenPair[]",
          "name": "newTokenPairs",
          "type": "tuple[]"
        },
        {
          "components": [
            {
              "internalType": "address",
              "name": "token",
              "type": "address"
            },
            {
              "internalType": "uint256",
              "name": "amount",
              "type": "uint256"
            },
            {
              "internalType": "uint256",
              "name": "deadline",
              "type": "uint256"
            },
            {
              "internalType": "uint8",
              "name": "v",
              "type": "uint8"
            },
            {
              "internalType": "bytes32",
              "name": "r",
              "type": "bytes32"
            },
            {
              "internalType": "bytes32",
              "name": "s",
              "type": "bytes32"
            },
            {
              "components": [
                {
                  "internalType": "address",
                  "name": "recipientAddress",
                  "type": "address"
                },
                {
                  "internalType": "uint256",
                  "name": "amount",
                  "type": "uint256"
                },
                {
                  "internalType": "bool",
                  "name": "wrap",
                  "type": "bool"
                },
                {
                  "internalType": "bool",
                  "name": "unwrap",
                  "type": "bool"
                },
                {
                  "internalType": "bool",
                  "name": "mint",
                  "type": "bool"
                },
                {
                  "internalType": "bool",
                  "name": "burn",
                  "type": "bool"
                }
              ],
              "internalType": "struct Bridge.Recipient[]",
              "name": "recipients",
              "type": "tuple[]"
            }
          ],
          "internalType": "struct Bridge.PermitData[]",
          "name": "permits",
          "type": "tuple[]"
        },
        {
          "components": [
            {
              "internalType": "uint256",
              "name": "amount",
              "type": "uint256"
            },
            {
              "internalType": "bytes",
              "name": "publicKey",
              "type": "bytes"
            },
            {
              "internalType": "address",
              "name": "prerotatedKeyHash",
              "type": "address"
            },
            {
              "internalType": "address",
              "name": "twicePrerotatedKeyHash",
              "type": "address"
            },
            {
              "internalType": "address",
              "name": "prevPublicKeyHash",
              "type": "address"
            },
            {
              "internalType": "address",
              "name": "outputAddress",
              "type": "address"
            }
          ],
          "internalType": "struct Bridge.Params",
          "name": "unconfirmed",
          "type": "tuple"
        },
        {
          "internalType": "bytes",
          "name": "unconfirmedSignature",
          "type": "bytes"
        },
        {
          "components": [
            {
              "internalType": "uint256",
              "name": "amount",
              "type": "uint256"
            },
            {
              "internalType": "bytes",
              "name": "publicKey",
              "type": "bytes"
            },
            {
              "internalType": "address",
              "name": "prerotatedKeyHash",
              "type": "address"
            },
            {
              "internalType": "address",
              "name": "twicePrerotatedKeyHash",
              "type": "address"
            },
            {
              "internalType": "address",
              "name": "prevPublicKeyHash",
              "type": "address"
            },
            {
              "internalType": "address",
              "name": "outputAddress",
              "type": "address"
            }
          ],
          "internalType": "struct Bridge.Params",
          "name": "confirming",
          "type": "tuple"
        },
        {
          "internalType": "bytes",
          "name": "confirmingSignature",
          "type": "bytes"
        }
      ],
      "name": "registerKeyPairWithTransfer",
      "outputs": [],
      "stateMutability": "payable",
      "type": "function"
    },
    {
      "inputs": [],
      "name": "relayer",
      "outputs": [
        {
          "internalType": "address",
          "name": "",
          "type": "address"
        }
      ],
      "stateMutability": "view",
      "type": "function"
    },
    {
      "inputs": [],
      "name": "renounceOwnership",
      "outputs": [],
      "stateMutability": "nonpayable",
      "type": "function"
    },
    {
      "inputs": [
        {
          "internalType": "address",
          "name": "_feeCollector",
          "type": "address"
        }
      ],
      "name": "setFeeCollector",
      "outputs": [],
      "stateMutability": "nonpayable",
      "type": "function"
    },
    {
      "inputs": [
        {
          "internalType": "address",
          "name": "_signer",
          "type": "address"
        }
      ],
      "name": "setFeeSigner",
      "outputs": [],
      "stateMutability": "nonpayable",
      "type": "function"
    },
    {
      "inputs": [
        {
          "internalType": "address",
          "name": "_wrappedTokenBeacon",
          "type": "address"
        }
      ],
      "name": "setWrappedTokenBeacon",
      "outputs": [],
      "stateMutability": "nonpayable",
      "type": "function"
    },
    {
      "inputs": [
        {
          "internalType": "uint256",
          "name": "",
          "type": "uint256"
        }
      ],
      "name": "supportedOriginalTokens",
      "outputs": [
        {
          "internalType": "address",
          "name": "",
          "type": "address"
        }
      ],
      "stateMutability": "view",
      "type": "function"
    },
    {
      "inputs": [
        {
          "internalType": "address",
          "name": "",
          "type": "address"
        }
      ],
      "name": "tokenPairs",
      "outputs": [
        {
          "internalType": "address",
          "name": "originalToken",
          "type": "address"
        },
        {
          "internalType": "address",
          "name": "wrappedToken",
          "type": "address"
        }
      ],
      "stateMutability": "view",
      "type": "function"
    },
    {
      "inputs": [
        {
          "internalType": "bytes",
          "name": "publicKey",
          "type": "bytes"
        },
        {
          "components": [
            {
              "internalType": "address",
              "name": "token",
              "type": "address"
            },
            {
              "internalType": "uint256",
              "name": "amount",
              "type": "uint256"
            },
            {
              "internalType": "uint256",
              "name": "deadline",
              "type": "uint256"
            },
            {
              "internalType": "uint8",
              "name": "v",
              "type": "uint8"
            },
            {
              "internalType": "bytes32",
              "name": "r",
              "type": "bytes32"
            },
            {
              "internalType": "bytes32",
              "name": "s",
              "type": "bytes32"
            },
            {
              "components": [
                {
                  "internalType": "address",
                  "name": "recipientAddress",
                  "type": "address"
                },
                {
                  "internalType": "uint256",
                  "name": "amount",
                  "type": "uint256"
                },
                {
                  "internalType": "bool",
                  "name": "wrap",
                  "type": "bool"
                },
                {
                  "internalType": "bool",
                  "name": "unwrap",
                  "type": "bool"
                },
                {
                  "internalType": "bool",
                  "name": "mint",
                  "type": "bool"
                },
                {
                  "internalType": "bool",
                  "name": "burn",
                  "type": "bool"
                }
              ],
              "internalType": "struct Bridge.Recipient[]",
              "name": "recipients",
              "type": "tuple[]"
            }
          ],
          "internalType": "struct Bridge.PermitData[]",
          "name": "permits",
          "type": "tuple[]"
        }
      ],
      "name": "transferBalanceToLatestKey",
      "outputs": [],
      "stateMutability": "nonpayable",
      "type": "function"
    },
    {
      "inputs": [
        {
          "internalType": "address",
          "name": "newOwner",
          "type": "address"
        }
      ],
      "name": "transferOwnership",
      "outputs": [],
      "stateMutability": "nonpayable",
      "type": "function"
    },
    {
      "inputs": [
        {
          "internalType": "address",
          "name": "newImplementation",
          "type": "address"
        },
        {
          "internalType": "bytes",
          "name": "data",
          "type": "bytes"
        }
      ],
      "name": "upgradeToAndCall",
      "outputs": [],
      "stateMutability": "payable",
      "type": "function"
    },
    {
      "inputs": [],
      "name": "wrappedTokenBeacon",
      "outputs": [
        {
          "internalType": "address",
          "name": "",
          "type": "address"
        }
      ],
      "stateMutability": "view",
      "type": "function"
    }
  ],
  "bytecode": "0x60a0806040523461002a5730608052613f419081610030823960805181818161286601526129150152f35b600080fdfe60a08060405260043610156200001457600080fd5b60003560e01c908163075693391462002dd157508063081da8c11462002d73578063276c1ac01462002d26578063429076961462002cfb57806347bbbdf51462002c9f578063485cc9551462002ae25780634f1ef28614620028d157806352d1902d1462002851578063602db8901462002805578063715018a614620027965780637e1aa17814620027475780637ecebe0014620027095780638406c07914620026de578063893d20e814620026a55780638da5cb5b14620026a55780638f2dd2de1462002656578063a42dce8014620025f5578063ad3cb1cc14620025a5578063b5057a7b146200257a578063bc04f56114620008a0578063c415b95c1462000875578063d3c7c2c714620007a5578063d8397fd5146200075e578063e7c9b99214620002895763f2fde38b146200014c57600080fd5b346200025d5760203660031901126200025d576200016962002df7565b6200017362003554565b6001600160a01b0381811691908215620002775760005460008051602062003ecc8339815191525460405163031fb6df60e31b81529083166001600160a01b039081166004830152841660248201529160209183916044918391165afa9081156200026b5760009162000224575b5015620002125762000210916001600160601b0360a01b60025416176002556200020a62003554565b620036fb565b005b60405163b012a29560e01b8152600490fd5b90506020813d60201162000262575b81620002426020938362002e6f565b810103126200025d5762000256906200328a565b38620001e1565b600080fd5b3d915062000233565b6040513d6000823e3d90fd5b60405163d92e233d60e01b8152600490fd5b346200025d5760403660031901126200025d576001600160401b036004358181116200025d57620002bf90369060040162002ee9565b906024359081116200025d57620002db90369060040162002f4c565b9091620002e76200358f565b620002f28162002ffd565b9260005b8381106200031357600160008051602062003eec83398151915255005b6200032a620003248286856200334b565b6200337d565b80519091906001600160a01b0316156200074c57600054604051631697653560e11b81526020600482015261010091829082906001600160a01b0316818062000377602482018c62002f0a565b03915afa9081156200026b5760009260009262000714575b505015620007025782516040516370a0823160e01b81526001600160a01b038981166004830152909160209183916024918391165afa9081156200026b57600091620006ca575b508015620006b85742604085015110620006a6578351604051633644e51560e01b815290602090829060049082906001600160a01b03165afa9081156200026b576000916200066e575b508451604051623f675f60e91b81526001600160a01b038b81166004830152909160209183916024918391165afa9081156200026b5760009162000633575b5062000532906200053c92620004d2620004df8d60408b015194620004926040519687928b6020850195309087620034fc565b0394620004a8601f199687810183528262002e6f565b519020604051928391602083019586909160429261190160f01b8352600283015260228201520190565b0384810183528262002e6f565b519020608088015160a08901516060808b015160408051602081019590955284019290925260f89190911b6001600160f81b0319169082015260619283018152916200052c908362002e6f565b62003813565b9092919262003852565b6001600160a01b03898116911603620006215760018060a01b038451169160408501519260ff6060870151169360808701519160a0880151813b156200025d5760405163d505accf60e01b81526001600160a01b038e16600482015230602482015260448101879052606481019390935260ff96909616608483015260a482019290925260c4810194909452600090849060e490829084905af180156200026b5760019562000608948b926200060f575b505160209092015160a087901b87900390811692166200369e565b01620002f6565b6200061a9062002e3f565b8b620005ed565b604051634d96a8a760e01b8152600490fd5b90506020813d60201162000665575b81620006516020938362002e6f565b810103126200025d57516200053c6200045f565b3d915062000642565b90506020813d6020116200069d575b816200068c6020938362002e6f565b810103126200025d57518962000420565b3d91506200067d565b6040516305787bdf60e01b8152600490fd5b604051631e9acf1760e31b8152600490fd5b90506020813d602011620006f9575b81620006e86020938362002e6f565b810103126200025d575188620003d6565b3d9150620006d9565b60405163145a1fdd60e31b8152600490fd5b6200073c935080919250903d1062000744575b62000733818362002e6f565b81019062003298565b88806200038f565b503d62000727565b60405163772e719d60e11b8152600490fd5b346200025d5760203660031901126200025d576004356007548110156200025d576200078c60209162002faf565b905460405160039290921b1c6001600160a01b03168152f35b346200025d5760003660031901126200025d57604051806007548083526020809301809160076000527fa66cc928b5edb82af9bd49922954155ab7b0942694bea4ce44661d9a8736c6889060005b86828210620008575786866200080c8288038362002e6f565b604051928392818401908285525180915260408401929160005b8281106200083657505050500390f35b83516001600160a01b03168552869550938101939281019260010162000826565b83546001600160a01b031685529093019260019283019201620007f3565b346200025d5760003660031901126200025d576002546040516001600160a01b039091168152602090f35b6101003660031901126200025d57620008b862002df7565b6001600160401b03602435116200025d576080602435360360031901126200025d576044356001600160401b0381116200025d57620008fc90369060040162002f4c565b91906064356001600160401b0381116200025d576200092090369060040162002f4c565b9390916001600160401b03608435116200025d5760c0608435360360031901126200025d576001600160401b0360a435116200025d57620009673660a43560040162002f7f565b6001600160401b0360c435116200025d5760c060c435360360031901126200025d576001600160401b0360e435116200025d57620009ab3660e43560040162002f7f565b919092620009b86200358f565b620009e4620009de620009d660246084350160843560040162003050565b369162002ead565b62002ffd565b6001600160a01b031633036200070257336000526006602052604060002054918860405162000a368162000a278760208301958d8d6084356004019289620030da565b03601f19810183528262002e6f565b5190206001600160a01b0362000a5160843560a40162003252565b16156200027757604062000a7060246084350160843560040162003050565b905003620007025762000aa862000aaf9362000a9f620009de620009d660246084350160843560040162003050565b93369162002ead565b90620035c1565b1562001bb9576001600160a01b0362000acd60c43560a40162003252565b16620024d2575b50505060005b828110620021cd57506001600160a01b03915062000aff905060c43560a40162003252565b1615928062000fdd575b50505062000de7576000546001600160a01b031662000b32608435602481019060040162003050565b919062000b4460446084350162003252565b9262000b5560646084350162003252565b9362000b65608480350162003252565b62000b7560a46084350162003252565b62000b8b602460c4350160c43560040162003050565b9062000b9c604460c4350162003252565b9462000bad606460c4350162003252565b9262000bbe608460c4350162003252565b9462000bcf60a460c4350162003252565b968b3b156200025d576040516385687dcd60e01b815261014060048201529c8d9b8c9b62000c04916101448e019190620030b9565b6001600160a01b0395861660248d015290851660448c015290841660648b0152921660848901528782036003190160a489015262000c4292620030b9565b6001600160a01b0394851660c487015290841660e4860152908316610104850152911661012483015203815a6000948591f180156200026b5762000dd5575b5060008051602062003ecc833981519152546001600160a01b031633811462000cf0575b505b33600052600660205260406000208054906002820180921162000cda5755600160008051602062003eec83398151915255005b634e487b7160e01b600052601160045260246000fd5b62000d00604460c4350162003252565b62000d0a62003554565b6001600160a01b038116918215620002775760005460405163031fb6df60e31b81526001600160a01b03928316600482015283831660248201529160209183916044918391165afa9081156200026b5760009162000d93575b5015620002125762000d8c916001600160601b0360a01b60025416176002556200020a62003554565b8062000ca5565b90506020813d60201162000dcc575b8162000db16020938362002e6f565b810103126200025d5762000dc5906200328a565b8362000d63565b3d915062000da2565b62000de09062002e3f565b8062000c81565b6000546001600160a01b031662000e08608435602481019060040162003050565b916044608435019262000e1b8462003252565b9162000e2c60646084350162003252565b9362000e3c608480350162003252565b62000e4c60a46084350162003252565b93833b156200025d5760009562000e85958793604051998a98899788966330a6293b60e11b885260a0600489015260a4880191620030b9565b6001600160a01b039485166024870152908416604486015290831660648501529116608483015203925af180156200026b5762000fcb575b5060008051602062003ecc833981519152546001600160a01b03169033821462000eea575b505062000ca7565b62000ef59062003252565b62000eff62003554565b6001600160a01b038116918215620002775760005460405163031fb6df60e31b81526001600160a01b03928316600482015283831660248201529160209183916044918391165afa9081156200026b5760009162000f89575b5015620002125762000f81916001600160601b0360a01b60025416176002556200020a62003554565b808062000ee2565b90506020813d60201162000fc2575b8162000fa76020938362002e6f565b810103126200025d5762000fbb906200328a565b8362000f58565b3d915062000f98565b62000fd69062002e3f565b8162000ebd565b6000546200103090610100906001600160a01b031662001007608435602481019060040162003050565b604051631697653560e11b815260206004820152948593928492839291602484019190620030b9565b03915afa80156200026b578591600091620021a5575b50816200219c575b506200074c5760006080528362002183576200106f604460c4350162003252565b6080525b6200108d620009d660246084350160843560040162003050565b906000906000620010a060009462002ffd565b9260005b838110620020af575b50156200209d578062002079575b6200021257909192936000935b828510620010d95750505062000b09565b620010ef620003248685899a969798996200334b565b80519097600195909160009081906001600160a01b0387811691161462001f14575b8a516001600160a01b03161515918262001f0a575b508162001f00575b5062001c61575b851562001aa7575b88516001600160a01b03161594600092835b60c08c0151805186101562001a0157856200116a9162003619565b5180519091906001600160a01b031615620002775760208201518d8115620019f4576020015110620019e2578c6060830151151580620019cb575b15620014b257516040516370a0823160e01b815233600482015290602090829060249082906001600160a01b03165afa9081156200026b576000916200147a575b5060208301518091106200025d578d516200120f9190309033906001600160a01b03166200369e565b8c516020830151906001600160a01b0316803b156200025d57604051632770a7eb60e21b815230600482015260248101929092526000908290604490829084905af180156200026b5762001468575b5060018060a01b038d5116600052600560205260406000209160405192620012868462002e23565b80546001600160a01b039081168552600190910154811660208501528e518f911680620013eb5750906200134d9291600194620012e4620012c8601262003649565b620012de6020860151602480350135906200365b565b6200366f565b620012f481602086015162003690565b878060a01b038351168015600014620013a6575062001318919250608051620037b3565b806200138a575b505b62001336602082015160208401519062003690565b908162001357575b50506020905b01519062003267565b945b01936200114f565b90602092936200137b8262001381946080519033908b8060a01b039051166200369e565b62003267565b91908f6200133e565b6200139f90868060a01b0360025416620037b3565b386200131f565b608051620013b59291620037d1565b80620013c4575b505062001321565b620013e391878060a01b03905116878060a01b036002541690620037d1565b3880620013bc565b60405163313ce56760e01b815293929150602090849060049082905afa80156200026b578f9094620012e4620012c86001976200134d9760009162001432575b5062003649565b62001459915060203d60201162001460575b62001450818362002e6f565b8101906200362e565b386200142b565b503d62001444565b620014739062002e3f565b8d6200125e565b90506020813d602011620014a9575b81620014986020938362002e6f565b810103126200025d57518e620011e6565b3d915062001489565b5060a0820151151580620019b4575b156200154e578c51825160208401516001600160a01b03928316939290911690833b156200025d57604051632770a7eb60e21b81526001600160a01b0390921660048301526024820152916000908390818381604481015b03925af180156200026b576001936200134d936020926200153c575b5062001344565b620015479062002e3f565b3862001535565b60808201511515806200199d575b1562001620578c516001600160a01b031680620015e457506200159362001588620012c8601262003649565b602084015162003690565b8d5183516001600160a01b039182169392911690833b156200025d576040516340c10f1960e01b81526001600160a01b03909216600483015260248201529160009083908183816044810162001519565b60206004916040519283809263313ce56760e01b82525afa80156200026b57620012c86200158891620015939360009162001432575062003649565b8c8a604084015115158062001986575b156200191d57505060018060a01b038d51166000526005602052604060002090604051916200165f8362002e23565b80546001600160a01b03908116845260019091015416602083015289620019045781516040516370a0823160e01b815233600482015290602090829060249082906001600160a01b03165afa9081156200026b57600091620018cc575b506020840151116200025d575b8d516001600160a01b0316806200189057506200172d62001705620016ef601262003649565b620012de6020870151602480350135906200365b565b928b156200183f578362001820575b602060018060a01b039101511692602085015162003690565b91803b156200025d576040516340c10f1960e01b81526080516001600160a01b0316600482015260248101939093526000908390604490829084905af19283156200026b578e6200134d936001956200180e575b5060208201516020820151808210620017a1575b50505060209062001344565b90620017ad9162003690565b908b82620017bf575b81925062001795565b938291620017ea9360209596898060a01b031615600014620017f4576200137b9150608051620037b3565b91908f8b620017b6565b6200137b916080519033908b8060a01b039051166200369e565b620018199062002e3f565b3862001781565b600254620018399085906001600160a01b0316620037b3565b62001714565b6200186860018060a01b038251166200185d86602089015162003690565b90309033906200369e565b831562001714578051600254620018399186916001600160a01b03908116913391166200369e565b60206004916040519283809263313ce56760e01b82525afa80156200026b57620016ef62001705916200172d9360009162001432575062003649565b90506020813d602011620018fb575b81620018ea6020938362002e6f565b810103126200025d57518f620016bc565b3d9150620018db565b96620019169060208401519062003267565b96620016c9565b6001936200134d939260209262001935575062001344565b8c156200195c575062001955858060a01b038251168383015190620037b3565b8f62001535565b6200198090868060a01b03905116868060a01b03835116848401519133906200369e565b62001955565b5081516001600160a01b038b811691161462001630565b508c516001600160a01b038981169116146200155c565b508c516001600160a01b03898116911614620014c1565b5080516001600160a01b038a8116911614620011a5565b60405163143d1ae760e21b8152600490fd5b505094600191506200134f565b50935097955098909397929562001a3d575b602001510362001a2b576001019394909192620010c8565b6040516312171d8360e31b8152600490fd5b62001a4d82602083015162003690565b8062001a5b575b5062001a13565b909160209162001a82916001600160a01b038b1662001a8a576200137b82608051620037b3565b919062001a54565b60805185516200137b91849133906001600160a01b03166200369e565b426044602435013510620006a6576001600160a01b0362001acd60046024350162003252565b1662001bf35762001adf601262003649565b6024803501351162001be15762001afb60243560040162003252565b6040519060018060a01b0316602082015260248035013560408201526060604460243501358183015281528060808101106001600160401b0360808301111762001bcb5760808101604052602081519101207f19457468657265756d205369676e6564204d6573736167653a0a333200000000600052601c5262001ba262000532603c60002062001b9b620009d660646024350160243560040162003050565b9062003813565b6003546001600160a01b039182169116146200113d575b604051638baa579f60e01b8152600490fd5b634e487b7160e01b600052604160045260246000fd5b604051630adad23360e31b8152600490fd5b600460206001600160a01b0362001c0e602435840162003252565b166040519283809263313ce56760e01b82525afa80156200026b5762001adf9160009162001c3d575062003649565b62001c5a915060203d602011620014605762001450818362002e6f565b8b6200142b565b60408901514211620006a6578851604051633644e51560e01b815290602090829060049082906001600160a01b03165afa9081156200026b5760009162001ec8575b5060208a8101518b51604051623f675f60e91b81523360048201529290839060249082906001600160a01b03165afa80156200026b578c9260009162001e88575b509262000a2762001d1b849362001d6d96620004a86040620005329801519162000a276040519384926020840196303389620034fc565b519020608082015160a083015160609384015160408051602081019490945283019190915260f81b6001600160f81b031916928101929092526200052c82606181015b03601f19810184528362002e6f565b6001600160a01b0388811691160362001e29575b8860018060a01b0381511660208201519060408301519060ff6060850151169160a06080860151950151823b156200025d5760405163d505accf60e01b81523360048201523060248201526044810195909552606485019190915260ff92909216608484015260a483019390935260c482015290600090829060e490829084905af180156200026b5762001e17575b5062001135565b62001e229062002e3f565b8962001e10565b91936000989691939795985b60c0880151805182101562001e77576001600160a01b039062001e5a90839062003619565b51511660018060a01b036080511603620006215760010162001e35565b505093919794969290959762001d81565b919250506020813d60201162001ebf575b8162001ea86020938362002e6f565b810103126200025d57518b919062000a2762001ce4565b3d915062001e99565b90506020813d60201162001ef7575b8162001ee66020938362002e6f565b810103126200025d57518a62001ca3565b3d915062001ed7565b9050158a6200112e565b1591508b62001126565b97929190989560009a9794959a5b60c0890151805182101562002066578162001f3d9162003619565b5160408101511580159062002058575b80156200204a575b80156200203c575b62001f95575b608081015162001f8b575b60a0015162001f81575b60010162001f22565b6001995062001f78565b60019b5062001f6e565b600096506001600160a01b038d1615158062002005575b8062001fcb575b1562001f6357604051630adad23360e31b8152600490fd5b5062001fdc60243560040162003252565b6001600160a01b038e811660009081526005602052604090206001015481169116141562001fb3565b506200201660243560040162003252565b6001600160a01b038e811660009081526005602052604090205481169116141562001fac565b5060a0810151151562001f5d565b506060810151151562001f55565b506080810151151562001f4d565b5050959890919297999493969962001111565b5060008051602062003ecc833981519152546001600160a01b0316331415620010bb565b604051633bee968760e01b8152600490fd5b620020c06200032482868a6200334b565b80516001600160a01b0316801562002179575b6001600160a01b038a1614620020ee575b50600101620010a4565b979593919096949260c060009901985b89518051821015620021675781620021169162003619565b516080810151159081159162002158575b506200213657600101620020fe565b5050909294965060019591939591825b620021525789620020e4565b620010ad565b60a09150015115158c62002127565b50508093959791929496985062002146565b60019350620020d3565b6200219360446084350162003252565b60805262001073565b9050856200104e565b620021c491506101003d61010011620007445762000733818362002e6f565b90508662001046565b8060051b820135607e19833603018112156200025d5760808184013603126200025d57604051908160808101106001600160401b0360808401111762001bcb57608082016040526200222181850162002e0e565b8252602081850101356001600160401b0381116200025d576200224a9036908387010162002ee9565b6020830152604081850101356001600160401b0381116200025d57620022769036908387010162002ee9565b60408301526200228c6060809286010162002e0e565b8282015281516001600160a01b0390811660009081526005602052604090206001015416620024c0578101516001600160a01b03168015620023dc575b8151604051906001600160a01b0316620022e38262002e23565b81526001600160a01b0391821660208083018281528551851660009081526005909252604091829020935184549086166001600160a01b031991821617855590516001948501805491871691831691909117905585519151929490939291166200234d8262002e23565b815260208101938085526000526005602052604060002090828060a01b0390511683825416178155019160018060a01b039051169082541617905560018060a01b0390511690600754916801000000000000000083101562001bcb57620023bc83600180950160075562002faf565b819291549060031b91821b91858060a01b03901b19161790550162000ada565b506200242462002452602083015160408401516200243760018060a01b0360005416916040519586946303bf912560e11b60208701526080602487015260a486019062002f0a565b8481036023190160448601529062002f0a565b90306064840152608483015203601f19810183528262002e6f565b60045460405191906001600160a01b03166001600160401b0361049484019081119084111762001bcb578291620024a59161049462003a3885396104948401908152604060208201819052019062002f0a565b03906000f080156200026b576001600160a01b0316620022c9565b604051636bb9e87d60e01b8152600490fd5b60018101811162000cda57604051620025028162000a2760016020830195018b8a8a60c4356004019289620030da565b51902060406200251d602460c4350160c43560040162003050565b90500362000702576001600160a01b036200253d60c43560a40162003252565b1615620002775762000aa86200256b9362000a9f620009de620009d6602460c4350160c43560040162003050565b1562001bb95785808062000ad4565b346200025d5760003660031901126200025d576000546040516001600160a01b039091168152602090f35b346200025d5760003660031901126200025d57620025f1604051620025ca8162002e23565b60058152640352e302e360dc1b602082015260405191829160208352602083019062002f0a565b0390f35b346200025d5760203660031901126200025d576200261262002df7565b6200261c62003554565b6001600160a01b0316801562002644576001600160601b0360a01b6002541617600255600080f35b60405163bb0bac9960e01b8152600490fd5b346200025d5760203660031901126200025d576200267362002df7565b6200267d62003554565b6001600160a01b0316801562000277576001600160601b0360a01b6004541617600455600080f35b346200025d5760003660031901126200025d5760008051602062003ecc833981519152546040516001600160a01b039091168152602090f35b346200025d5760003660031901126200025d576001546040516001600160a01b039091168152602090f35b346200025d5760203660031901126200025d576001600160a01b036200272e62002df7565b1660005260066020526020604060002054604051908152f35b346200025d5760203660031901126200025d576200276462002df7565b6200276e62003554565b6001600160a01b0316801562000277576001600160601b0360a01b6003541617600355600080f35b346200025d5760003660031901126200025d57620027b362003554565b60008051602062003ecc83398151915280546001600160a01b031981169091556000906001600160a01b03167f8be0079c531659141344cd1fd0a4f28419497f9722a3daafe3b4186f6b6457e08280a3005b346200025d5760203660031901126200025d576200282262002df7565b6200282c62003554565b479081156200025d57600080809381935af1620028486200301b565b50156200025d57005b346200025d5760003660031901126200025d577f00000000000000000000000000000000000000000000000000000000000000006001600160a01b03163003620028bf5760206040517f360894a13ba1a3210667c828492db98dca3e2076cc3735a920a3ca505d382bbc8152f35b60405163703e46dd60e11b8152600490fd5b60403660031901126200025d57620028e862002df7565b6024356001600160401b0381116200025d576200290a90369060040162002ee9565b906001600160a01b037f0000000000000000000000000000000000000000000000000000000000000000811630811490811562002ab3575b50620028bf576200295262003554565b8116906040516352d1902d60e01b8152602081600481865afa6000918162002a79575b506200299457604051634c9c8ce360e01b815260048101849052602490fd5b7f360894a13ba1a3210667c828492db98dca3e2076cc3735a920a3ca505d382bbc9291929081810362002a615750823b1562002a485780546001600160a01b03191682179055604051907fbc7cd75a20ee27fd9adebab32041f755214dbc6bffa90cc0225b39da2e5c2d3b600080a282511562002a2e57506000808360206200021095519101845af462002a276200301b565b91620039cf565b9150503462002a3957005b63b398979f60e01b8152600490fd5b604051634c9c8ce360e01b815260048101839052602490fd5b60249060405190632a87526960e21b82526004820152fd5b9091506020813d60201162002aaa575b8162002a986020938362002e6f565b810103126200025d5751908562002975565b3d915062002a89565b9050817f360894a13ba1a3210667c828492db98dca3e2076cc3735a920a3ca505d382bbc541614158462002942565b346200025d5760403660031901126200025d5762002aff62002df7565b6001600160a01b0390602435828116908190036200025d577ff0c57e16840df040f15088dc2f81fe391c3923bec73e23a9662efc9c229c6a009283549260ff8460401c1615936001600160401b0381168015908162002c96575b600114908162002c8b575b15908162002c81575b5062002c6f5767ffffffffffffffff19811660011786558462002c4f575b5062002b9662003771565b62002ba062003771565b62002bab33620036fb565b62002bb562003771565b62002bbf62003771565b62002bc962003771565b600160008051602062003eec8339815191525516801562000277576001600160601b0360a01b9081600054161760005533816002541617600255600454161760045562002c1257005b68ff00000000000000001981541690557fc7f505b2f371ae2175ee4913f4499e1f2633a7b5936321eed1cdaeb6115181d2602060405160018152a1005b68ffffffffffffffffff1916680100000000000000011785558562002b8b565b60405163f92ee8a960e01b8152600490fd5b9050158762002b6d565b303b15915062002b64565b86915062002b59565b346200025d5760203660031901126200025d576001600160a01b038062002cc562002df7565b16600090815260056020908152604091829020805460019091015483516001600160a01b03928616831681529416169083015290f35b346200025d5760003660031901126200025d576004546040516001600160a01b039091168152602090f35b346200025d5760203660031901126200025d576004356001600160401b0381116200025d5762002d61620009de602092369060040162002ee9565b6040516001600160a01b039091168152f35b346200025d5760203660031901126200025d576020806001600160a01b038062002d9c62002df7565b166000526005825260406000209060016040519262002dbb8462002e23565b8281541684520154169182910152604051908152f35b346200025d5760003660031901126200025d576003546001600160a01b03168152602090f35b600435906001600160a01b03821682036200025d57565b35906001600160a01b03821682036200025d57565b604081019081106001600160401b0382111762001bcb57604052565b6001600160401b03811162001bcb57604052565b60e081019081106001600160401b0382111762001bcb57604052565b90601f801991011681019081106001600160401b0382111762001bcb57604052565b6001600160401b03811162001bcb57601f01601f191660200190565b92919262002ebb8262002e91565b9162002ecb604051938462002e6f565b8294818452818301116200025d578281602093846000960137010152565b9080601f830112156200025d5781602062002f079335910162002ead565b90565b919082519283825260005b84811062002f37575050826000602080949584010152601f8019910116010190565b60208183018101518483018201520162002f15565b9181601f840112156200025d578235916001600160401b0383116200025d576020808501948460051b0101116200025d57565b9181601f840112156200025d578235916001600160401b0383116200025d57602083818601950101116200025d57565b60075481101562002fe75760076000527fa66cc928b5edb82af9bd49922954155ab7b0942694bea4ce44661d9a8736c6880190600090565b634e487b7160e01b600052603260045260246000fd5b6040815103620007025780516020909101206001600160a01b031690565b3d156200304b573d906200302f8262002e91565b916200303f604051938462002e6f565b82523d6000602084013e565b606090565b903590601e19813603018212156200025d57018035906001600160401b0382116200025d576020019181360383136200025d57565b9035601e19823603018112156200025d5701602081359101916001600160401b0382116200025d5781360383136200025d57565b908060209392818452848401376000828201840152601f01601f1916010190565b94929095936080928387019060018060a01b0380991688528360209286848b01525260a0880160a08560051b8a010194826000906000915b838310620031ad5750505050505096620031a460a08093620031618a9b8b604060609b9c9d8a039101528235885260c0620031508285018562003085565b9190928a015260c0890191620030b9565b9684620031716040840162002e0e565b16604088015284620031858a840162002e0e565b1689880152846200319882840162002e0e565b16908701520162002e0e565b16910152930152565b909192939497609f198d82030186528835607e19843603018112156200324e57878f6001938d6200322b6200320d898697019285620031ec8562002e0e565b168552620031fd8785018562003085565b90918089880152860191620030b9565b60406200321d8185018562003085565b9186840390870152620030b9565b926200323b606080930162002e0e565b169101529a019601949301919062003112565b8280fd5b356001600160a01b03811681036200025d5790565b9190820180921162000cda57565b51906001600160a01b03821682036200025d57565b519081151582036200025d57565b8092910361010081126200025d5760e0136200025d57604051620032bc8162002e53565b620032c78362003275565b8152620032d76020840162003275565b6020820152620032ea6040840162003275565b6040820152620032fd6060840162003275565b6060820152620033106080840162003275565b60808201526200332360a084016200328a565b60a082015260c083015160038110156200025d5760c08201529162002f079060e0016200328a565b919081101562002fe75760051b8101359060de19813603018212156200025d570190565b359081151582036200025d57565b60e0813603126200025d576040805191620033988362002e53565b620033a38162002e0e565b8352602080820135818501528282013583850152606090606083013560ff811681036200025d5760608601526080916080840135608087015260a09360a081013560a088015260c094858201356001600160401b03928382116200025d57019436601f870112156200025d5785359383851162001bcb578851986200342e878760051b018b62002e6f565b858a528689818c019702890101973689116200025d578701955b8887106200345f5750505050505050505082015290565b89873603126200025d578151908a82019082821088831117620034e7578b928a9285526200348d8a62002e0e565b8152828a013583820152620034a4858b016200336f565b85820152620034b5868b016200336f565b86820152620034c6878b016200336f565b87820152620034d7888b016200336f565b8882015281520196019562003448565b60246000634e487b7160e01b81526041600452fd5b7f6e71edae12b1b97f4d1f60370fef10105fa2faae0126114a169c64845d6126c981526001600160a01b039182166020820152911660408201526060810191909152608081019190915260a081019190915260c00190565b60008051602062003ecc833981519152546001600160a01b031633036200357757565b60405163118cdaa760e01b8152336004820152602490fd5b60008051602062003eec8339815191526002815414620035af5760029055565b604051633ee5aeb560e01b8152600490fd5b620036089291620035fe917f19457468657265756d205369676e6564204d6573736167653a0a333200000000600052601c52603c60002062003813565b9093919362003852565b6001600160a01b0391821691161490565b805182101562002fe75760209160051b010190565b908160209103126200025d575160ff811681036200025d5790565b60ff16604d811162000cda57600a0a90565b8181029291811591840414171562000cda57565b81156200367a570490565b634e487b7160e01b600052601260045260246000fd5b9190820391821162000cda57565b6040516323b872dd60e01b60208201526001600160a01b03928316602482015292909116604483015260648083019390935291815260a08101918183106001600160401b0384111762001bcb57620036f992604052620038dc565b565b6001600160a01b03908116908115620037585760008051602062003ecc83398151915280546001600160a01b031981168417909155167f8be0079c531659141344cd1fd0a4f28419497f9722a3daafe3b4186f6b6457e0600080a3565b604051631e4fbdf760e01b815260006004820152602490fd5b60ff7ff0c57e16840df040f15088dc2f81fe391c3923bec73e23a9662efc9c229c6a005460401c1615620037a157565b604051631afcd79f60e31b8152600490fd5b60008080938193617530f1620037c86200301b565b501562001a2b57565b60405163a9059cbb60e01b60208201526001600160a01b0390921660248301526044820192909252620036f9916200380d826064810162001d5e565b620038dc565b815191906041830362003847576200384092506020820151906060604084015193015160001a906200393c565b9192909190565b505060009160029190565b6004811015620038c6578062003866575050565b60018103620038815760405163f645eedf60e01b8152600490fd5b60028103620038a35760405163fce698f760e01b815260048101839052602490fd5b600314620038ae5750565b602490604051906335e2f38360e21b82526004820152fd5b634e487b7160e01b600052602160045260246000fd5b906000602091828151910182855af1156200026b576000513d6200393257506001600160a01b0381163b155b620039105750565b604051635274afe760e01b81526001600160a01b039091166004820152602490fd5b6001141562003908565b91907f7fffffffffffffffffffffffffffffff5d576e7357a4501ddfe92f46681b20a08411620039c357926020929160ff608095604051948552168484015260408301526060820152600092839182805260015afa15620039b75780516001600160a01b03811615620039ae57918190565b50809160019190565b604051903d90823e3d90fd5b50505060009160039190565b90620039f85750805115620039e657805190602001fd5b60405163d6bda27560e01b8152600490fd5b8151158062003a2d575b62003a0b575090565b604051639996b31560e01b81526001600160a01b039091166004820152602490fd5b50803b1562003a0256fe60a0604090808252346101eb57610494803803809161001e828561029a565b8339810182828203126101eb57610034826102d3565b60208084015191939091906001600160401b0382116101eb570182601f820112156101eb57805190610065826102e7565b936100728751958661029a565b8285528383830101116101eb57829060005b83811061028657505060009184010152823b15610266577fa3f0ad74e5423aebfd80d3ef4346578335a9a72aeaee59ff6cb3582b35133d5080546001600160a01b0319166001600160a01b038581169182179092558551635c60da1b60e01b8082529194928482600481895afa91821561025b57600092610224575b50813b1561020b575050837f1cf3b03a6cf19fa2baba4df148e9dcabedea7f8a5c07840e207e5c089be95d3e600080a2815115610202578290600487518096819382525afa9283156101f7576000936101b5575b5091600080848461019296519101845af4903d156101ac573d610176816102e7565b906101838851928361029a565b8152600081943d92013e610302565b505b6080525161012e908161036682396080518160180152f35b60609250610302565b92508183813d83116101f0575b6101cc818361029a565b810103126101eb576000806101e3610192956102d3565b945050610154565b600080fd5b503d6101c2565b85513d6000823e3d90fd5b50505050610194565b8751634c9c8ce360e01b81529116600482015260249150fd5b9091508481813d8311610254575b61023c818361029a565b810103126101eb5761024d906102d3565b9038610100565b503d610232565b88513d6000823e3d90fd5b8351631933b43b60e21b81526001600160a01b0384166004820152602490fd5b818101830151868201840152849201610084565b601f909101601f19168101906001600160401b038211908210176102bd57604052565b634e487b7160e01b600052604160045260246000fd5b51906001600160a01b03821682036101eb57565b6001600160401b0381116102bd57601f01601f191660200190565b90610329575080511561031757805190602001fd5b60405163d6bda27560e01b8152600490fd5b8151158061035c575b61033a575090565b604051639996b31560e01b81526001600160a01b039091166004820152602490fd5b50803b1561033256fe60806040819052635c60da1b60e01b81526020816004817f00000000000000000000000000000000000000000000000000000000000000006001600160a01b03165afa90811560a9576000916054575b5060da565b905060203d60201160a3575b601f8101601f191682019167ffffffffffffffff831181841017608d576088926040520160b5565b38604f565b634e487b7160e01b600052604160045260246000fd5b503d6060565b6040513d6000823e3d90fd5b602090607f19011260d5576080516001600160a01b038116810360d55790565b600080fd5b6000808092368280378136915af43d82803e1560f4573d90f35b3d90fdfea26469706673582212200db6467706d76aed567b8f75248dc5abca00b79b2786c9696fcc71abb51ed3cd64736f6c634300081800339016d09d72d40fdae2fd8ceac6b6234c7706214fd39c1cd1e609a0528c1993009b779b17422d0df92223018b32b4d1fa46e071723d6817e2486d003becc55f00a2646970667358221220001d2c2958b1d1bb1140cdc049e1742e88283b828ff0c41a91618f8ea71190eb64736f6c63430008180033",
  "linkReferences": {},
  "deployedLinkReferences": {}
}